:10000000E07F0010CD000000050C0000070C000090
:10001000090C00000B0C00000D0C0000000000009B
:100020000000000000000000000000001B140000A1
:100030001D140000000000001F1400002114000027
:1000400023140000231400002314000023140000D4
:1000500023140000231400002314000023140000C4
:1000600023140000231400002314000023140000B4
:1000700023140000231400002314000023140000A4
:100080002314000023140000231400002314000094
:100090002314000023140000231400002314000084
:1000A000091400002314000023140000231400008E
:1000B0002314000023140000231400002314000064
:1000C0002314000023140000231400000D490E4ADD
:1000D0000E4B9A423EBF51F8040B42F8040BF8E76E
:1000E00000200B490B4A91423CBF41F8040BFAE750
:1000F0000948804709488047094880470948004720
:10010000FEE70000B01A000000000010C00400105C
:10011000C004001080190010D90D00002514000043
:10012000030C0000F50A0000044B05481B1A062BBF
:1001300002D9044B03B11847704700BFC304001035
:10014000C00400100000000005490648091A891083
:1001500001EBD171491002D0034B03B1184770472E
:10016000C0040010C00400100000000010B5064CD0
:10017000237843B9FFF7D8FF044B13B10448AFF31A
:1001800000800123237010BDC00400100000000097
:100190005C1A000008B5084B1BB108490848AFF3CA
:1001A00000800848036813B9BDE80840CCE7064B57
:1001B000002BF9D09847F7E700000000C4040010B6
:1001C0005C1A0000000000100000000008B50348A1
:1001D000034B9847034A044B1A6008BD0400001003
:1001E000D10E000000200000F40400100F4B01228B
:1001F0001A600F4B82890360038A0E4943600E48E0
:1002000001EB4222026083B113440C4A0A44934238
:100210000B4998BF03220B4B8BBF0A220A700A704E
:10022000052284BF082119701A717047DC04001080
:10023000F804001000200000F404001000E00700A3
:10024000F00400108B0000100D4B092230B51A701D
:1002500083890C4C0C4A04EB43231360018A0B4A3C
:100260005D182244954202D80360416030BD0023EE
:10027000037143718371C3710123037230BD00BFE9
:10028000F004001000200000F404001000E007005B
:10029000044B00221A7002221A71034A034B1A609F
:1002A000704700BF8B00001000200000F404001015
:1002B000837A03F07F03212B1CD1C37A013B052BEA
:1002C00018D8DFE803F0030507150C150A4B10E0FA
:1002D0000A4B0EE00A4B06220360002303E0094BA1
:1002E000012203600023027143718371C37170475F
:1002F000054B1847704700BFED01000049020000A0
:100300008B000010F00400109102000070B5837A99
:10031000044603F07F03212B3AD1C37A022B2FD05E
:10032000032B02D0012B33D109E01A4B1A4A1B7957
:10033000082B13702CD1BDE87040184B1847038A66
:10034000144DBBB1164E174B3068A0F58040C00B62
:1003500098474FF4007214493068144B984728B9F5
:10036000238A326813443360052307E006232B7089
:100370000A2303E0084B06221A7008232B7170BD74
:10038000044B09221A71064A038A11680B44136050
:1003900070BD00BF8B000010F0040010B111000010
:1003A000F4040010390A0000F8040010510D000098
:1003B000034B1878A0F1080358425841704700BF1A
:1003C000F004001008B50A4B1B78063B022B0DD831
:1003D000084B9847BFF34F8F0749084BCA6802F490
:1003E000E0621343CB60BFF34F8FFEE708BD00BF51
:1003F000F0040010B111000000ED00E00400FA0567
:1004000007B500238DF802308DF804308DF80330E5
:10041000C0F3421300F01F008DF800308DF801008A
:10042000024B6846984703B05DF804FB550700008F
:10043000004B18470104000000F01F030A46012189
:100440009940C0F34210014B184700BFB5060000A9
:100450000121014B184700BF390400000021014B66
:10046000184700BF3904000000F01F030121994024
:10047000C0F34210004B1847BD06000000F01F03F8
:1004800001219940C0F34210004B1847C5060000F7
:1004900070B504460D46054B984720460DB1044BF8
:1004A00000E0044BBDE87040184700BF5104000055
:1004B000690400007D04000010B5064B0446C0F33B
:1004C0004210984704F01F04E04040F30000C0B21F
:1004D00010BD00BFCD06000000B532238BB00093E5
:1004E0000190029005A96846024B984705980BB009
:1004F0005DF804FBF11FFF1F044B4FF47A721B6879
:10050000B3FBF2F3024A1360704700BF940000107F
:10051000E004001000B535238BB0009301900290E9
:1005200005A96846024B984705980BB05DF804FB97
:10053000F11FFF1F30B504468BB00A4B9847342398
:100540008DE81800084B02941B6805A903936846C0
:10055000064B9847064D2046A8470028FBD1059832
:100560000BB030BDD9040000E0040010F11FFF1FE4
:10057000150500002DE9F04F814692469846254B1F
:10058000D7B053F820700024CB190193444539D2D9
:100590004FF4807616AD204B48469847C4EB0807C9
:1005A000324600211D4B28469847B7423A460AEB8F
:1005B000040128BF32461A4B284698473323194A6C
:1005C0000293019B1268E7180692DFF860B007A952
:1005D00002A8039704950596D84738210C910D95EC
:1005E0000E970F9611A90CA8D847119A62B93246F6
:1005F000294638460C4B984730B9079830B904F56E
:100600008074C3E7079801E04FF0FF3057B0BDE8B2
:10061000F08F00BFA0190000D9040000A115000050
:10062000B5140000E004001051140000F11FFF1F7A
:1006300010B51446044A52F820001A460144034BF0
:1006400020469847002010BDA0190000B5140000F6
:1006500004280BD8064B53F820303BB112B11A686E
:10066000114302E01A6822EA01011960704700BFD5
:10067000181A0000042804D8024B53F8203003B1A4
:1006800099617047181A0000042804D8024B53F8E7
:10069000203003B1D9617047181A0000042805D82A
:1006A000034B53F8200010B1406970470020704799
:1006B000181A0000004B184751060000004B18475D
:1006C00075060000004B184789060000004B1847CC
:1006D0009D0600000B4B4FF0FF310122C3F8801044
:1006E000C3F88420C3F88011C3F88421002319467D
:1006F00003F16042013302F56142202B82F80013BE
:10070000F6D1704700E100E00D4A4FF020635360DE
:10071000002318460B499360D1601361536103F1C4
:100720006041013301F56D410C2B054A0876F6D185
:10073000002353624FF0FF339362D3621363704719
:1007400000ED00E00000FA05014B9860704700BF23
:1007500000ED00E070B5427803780F2A4FEA4303BA
:1007600088BF01334FEA830388BF103A03F1804307
:1007700003F5303352000324817804FA02F51C6833
:1007800001FA02F224EA050422431A60437802784F
:100790000F2B4FEA420288BF103B144E88BF013234
:1007A0005B000324C17804FA03F556F8224001FAED
:1007B00003F324EA0504234346F822300379017841
:1007C000012B44780A4A06D152F82100A340034382
:1007D00042F8213070BD012000FA04F352F82100E4
:1007E00020EA030042F8210070BD00BF40C0024073
:1007F00068C00240064B0004302240F4A060C3F8F9
:100800000822C3F81002D3F80022D206FBD57047A5
:1008100000C00050084B0004202240F40070C3F8D0
:100820000822C3F81002D3F800229206FBD5024B2F
:10083000D3F81402C0B2704700C000501022064B1B
:10084000904040F48070C3F80822C3F81002D3F837
:100850000022D206FBD5704700C0005008B5014603
:1008600072B6D020034B9847034B41F08000984765
:1008700062B608BDF50700003D08000008B5014656
:1008800072B6D820034B9847034B0846984762B688
:1008900008BD00BFF50700003D08000008B501468F
:1008A00072B6F320034B9847034B0846984762B64D
:1008B00008BD00BFF50700003D08000008B501466F
:1008C00072B6FE20034B9847034B0846984762B622
:1008D00008BD00BFF50700003D08000008B572B66E
:1008E000FE20034B9847034BFE20984762B608BD95
:1008F000F50700001508000008B572B6430003F0C4
:100900001E0343EAD0110846034B9847034B0846A1
:10091000984762B608BD00BFF50700001508000043
:1009200072B6430003F01E0343EAD010012303FA1A
:1009300000F0064BC3F83802D3F800229206FBD52C
:10094000024BD3F8140262B6C0B2704700C0005028
:1009500008B572B6430003F01E0343EAD01040F01E
:100960004000034B9847034B0846984762B608BDC2
:10097000F50700003D08000008B572B6F220034BF1
:100980009847034BF220984762B608BDF507000070
:100990001508000008B572B6FA20024B984762B6F7
:1009A00008BD00BFF507000010B5044B9847BDE82F
:1009B000104040F00100C0B2014B1847DD080000B4
:1009C000BD08000010B5044B9847BDE8104000F08A
:1009D000FE00024B184700BFDD080000BD08000004
:1009E0004FF080431878C0F3800070474FF080428A
:1009F000137803F0FB03137070470000BFF34F8FB1
:100A00000449054BCA6802F4E0621343CB60BFF3AC
:100A10004F8FFEE700ED00E00400FA0582B00023EE
:100A20000093009B834204D2009B0193009B0133FF
:100A3000F6E7019802B070477047000008B54B20F8
:100A4000014B984708BD00BFB90400002DE9F041F3
:100A50000E4B98470E4B98470E4B98470E4B9847B6
:100A60000E4D0F4E0F4F0024A84738B9B84701214B
:100A700022460846B04784F00104F5E701221146FA
:100A8000BDE8F0411046064B184700BF350C00008A
:100A9000CD010000511100000D120000B103000053
:100AA000110C00001D13000008B50B4B984749209E
:100AB0000A4B98470A4B492098470A4D0121492083
:100AC000A847094C42F21070A04700214920A847CE
:100AD0000648A047064B9847B111000031040000BA
:100AE00051040000910400001D0A0000A0860100CE
:100AF000FD09000037B52D4B98472D4B98474B20EB
:100B00002C4B98474B202C4B98472C4C41F2080318
:100B10002B4A00211D20A0472A4929482A4B9847E3
:100B2000044678B929492A4B25489847294B1D2066
:100B30009847214641F20803214A1D20264CA04730
:100B4000012500E00025254C00232360244B984715
:100B500028B125B9234B984718B1234B9847012357
:100B6000236023681BB1214B9847214B1DE021498D
:100B700040F6B8308847204B4FF400529A604FF44B
:100B80007A708847BFF35F8FBFF34F8FBFF36F8FCC
:100B9000D2F800D0D2F804F04FF480230193019BE7
:100BA00013B1019B013BF9E7144B9847D90D0000A5
:100BB000F9040000310400005D040000310600006B
:100BC000F80600102C1A00003D160000321A000032
:100BD000F91700003505000075050000E404001059
:100BE0003D0A0000E1090000ED0900004D0A000087
:100BF000A90A00001D0A000000ED00E0FD09000048
:100C000070477047FEE7FEE7FEE7FEE7FEE70000FD
:100C100070B50E461546064C01462020A0473146C9
:100C20002420A04729462346BDE8704021201847CC
:100C30009104000010B52020094CA0472420A047B3
:100C40002120A047074C2020A0472420A047212096
:100C5000A047BDE81040012211461046024B18473C
:100C60003104000051040000110C0000004B184733
:100C7000F11FFF1F38B5044672B6064833254160A0
:100C8000C3600549054B056082600461984762B600
:100C900038BD00BF00170010141700106D0C0000C5
:100CA000054B10B434241C6058609960DA60184613
:100CB0000249034B10BC184700170010141700100E
:100CC0006D0C0000054B10B432241C605860996014
:100CD000DA6018460249034B10BC18470017001091
:100CE000141700106D0C000070B5054672B6022492
:100CF0000F2C8BBFE3032303A3F5D02303F6FF736D
:100D000088BF03F1FF338B4218D90F2C85BF04F540
:100D1000FF3303F5F9732303DB038B420A4E08D13B
:100D20002A4621462046B0472A4621462046074B00
:100D300098472A4621462046B04702E001341E2C3F
:100D4000D6D162B670BD00BFC50C0000A10C00007A
:100D50002DE9F041194D2B6803B928601848194E48
:100D6000046800232644934203D0CF5CF754013338
:100D7000F9E71C44B4F5007F04601BD1124E2968CA
:100D800030684FF47A78114DB0FBF8F0104B98476B
:100D900028680A4F78B930682346B0FBF8F0094A52
:100DA00039680C4CA047286828B9054B3860186092
:100DB000BDE8F0810020BDE8F08100BFE80400102C
:100DC000EC040010281700109400001014170010F5
:100DD000E90C0000750C0000394B2022C3F8A0215B
:100DE000D3F8A021910603D5D3F8A0215206FBD554
:100DF0000322C3F804210022C3F8A8210120C3F86C
:100E0000AC211322C3F80C01AA21C3F88420552277
:100E1000C3F88C10C3F88C20C3F88000C3F88C1082
:100E20002749C3F88C20D1F88830254A13F0806F09
:100E3000F9D00323C2F88030AA23C2F88C3055239E
:100E4000C2F88C30D2F888101D4B11F0407FF9D0D9
:100E50002322C3F8A420AA2155220120C3F8AC10F4
:100E6000C3F8AC20C3F8A000C3F8AC10C3F8AC20A2
:100E7000D3F8A82012F4806F114AF9D00323C2F8E6
:100E8000A030AA23C2F8AC305523C2F8AC30D2F857
:100E9000A8100B4B11F4407FF9D00A4AC3F8C420C4
:100EA0000022C3F8C82145F23A021A60064B074AED
:100EB0001B6823F0404323F07F039360704700BF1B
:100EC00000C00F40088420800000000000ED00E01A
:100ED000014B1860704700BF7C190010054A0023C1
:100EE00053701370044A0221117153719371D371BD
:100EF000704700BF3A19001028190010F0B51B4BBD
:100F00001B4A9C891268250A0021E4B26E1E1078E3
:100F100020B35778AF421FD1042E0BD8DFE806F07C
:100F200008030A0606005479214603E0917801E09F
:100F300000210C46A1420ED1022D1A6008BF528832
:100F40000A490CBF4A6048601A8A5B6893420BDD0D
:100F5000064B5A60F0BD01310244D8E701221871F6
:100F600058719871D8711A72F0BD00BF281900101D
:100F70007C1900100120014B184700BF7D080000BC
:100F8000044B01211970044B002219715A719A7196
:100F9000DA7170473A190010281900100348837A53
:100FA00013F07C0F01D0024B18477047281900102E
:100FB0000D03000010B51E4C0822214600201D4BD9
:100FC0009847082833D1A4F10A00002343721A4B32
:100FD00044F80A3C038A4360837A13F07C0F22D1E1
:100FE000C27A092A1BD8DFE802F005221A221A0762
:100FF00012221618114B0BE08089114BC0B2984792
:10100000BDE810400022114680200E4B18470E4BC1
:10101000BDE8104018470D4BFAE70D4BF8E70D4BB4
:10102000BDE8104018470C4BBDE81040184710BDF4
:1010300032190010391200003A190010DD0E0000BC
:101040005D080000B1120000FD0E0000810F0000DD
:10105000750F000011130000B102000070B5194CAB
:10106000637A73BBA37A656813F0800F1DD09DB1BE
:10107000412D34BF2A464022134B216880209847D7
:10108000636822681B1A024463602260CBB940285F
:1010900017D10123237270BD237A93B12A462946C2
:1010A0008020094B9847257270BD55B92A462946BC
:1010B000054B8020984701236372BDE87040034BC5
:1010C000184770BD28190010B11200009D0F0000D4
:1010D00010B51A4C637A43BBA37A626823F07F038E
:1010E00003F0FF008BB9164B52B121689847636833
:1010F000984216DC1B1A636023681844206010BDF8
:10110000114610469847B8B10BE052B91146104647
:101110000B4B984728B901236372BDE81040094B77
:101120001847094BBDE810401847402207490020E6
:10113000034BBDE81040184710BD00BF2819001030
:10114000391200009D0F0000111300003A19001021
:1011500010B5134AD2F8C43043F00043C2F8C4308B
:10116000104BD3F8F42F42F01202C3F8F42FD3F847
:10117000F82F122AFBD10C4C636823F07053636084
:10118000636843F0A0536360084B9847236923F4D6
:1011900040332361236943F48023236110BD00BFE2
:1011A00000C00F4000C0005000C00240C509000050
:1011B000004B1847C509000010B572B6124B4FF42A
:1011C0008072C3F80822420002F01E02D3F84442A3
:1011D00042EAD010012282401443C3F84442C3F8CB
:1011E0004802C3F84C1262B6D3F800020649C005A3
:1011F000FAD54FF48073C1F80832D1F834321A436B
:10120000C1F8342210BD00BF00C0005010B5074B1C
:101210000C22C3F80422064C40218020A047402124
:101220000020A047BDE81040024B184700C0005006
:10123000B9110000A9090000F8B572B68300194C75
:1012400003F03C0343F00103C4F828322346D3F8EB
:101250002052144C2D05FAD5D4F82052C5F30905B7
:1012600095421CDC15B1002633460DE0D4F8183247
:1012700011E013F0030708BFD4F81862032FCE540F
:101280004FEA162603D001339342F2DB03E0D4F891
:101290002872FF07F7D4044B9847044B984762B66F
:1012A0002846F8BD00C00050F90800007909000088
:1012B00070B5144672B68200124B02F03C0242F046
:1012C0000202C3F82822C3F8244264B10025D3F8EF
:1012D00028624A19B60709D5A54207DA126804350B
:1012E000C3F81C22F3E72546C3F81C42064B984777
:1012F000064B9847BFF36F8F62B6A5422846A8BF3A
:10130000204670BD00C00050F9080000950900009B
:1013100080210020004B184751090000F7B5304BE1
:10132000D3F80022D70744BF0122C3F80822D3F81C
:1013300000321E0713D52A4B0822C3F80822294B76
:101340009847C5060BD5284B9847284C402180204C
:10135000A04700204021A0470220254B9847204B62
:10136000D3F80022540738D5D3F83042E00710D51F
:101370000020204B9847410701D51F4B03E010F098
:10138000010002D01D4B984703E0082269461C4B20
:101390009847A20706D5174B80209847C30701D46A
:1013A000184B984734F0030304D10D4B0422C3F8C3
:1013B000082212E00A4E0F4F08250324D6F83032D7
:1013C0002B4204D0601040EAC410C0B2B8470134C8
:1013D000202C4FEA4505F1D1E7E703B0F0BD00BF8F
:1013E00000C00050DD080000C5030000B911000076
:1013F0009D08000021090000B50F0000D110000079
:10140000391200005D100000684620F007018D468B
:1014100001B5BDE8014085467047FEE7FEE7FEE7FF
:10142000FEE7FEE708B5064B9847064B9847064887
:10143000064B984708BDFEE7FEE7FEE7FEE7FEE73E
:10144000D506000009070000000000004907000061
:10145000032A70B426D940EA01039B0711D004780F
:101460000D78AC4222D10244431C05E013F8014B35
:1014700011F8015FAC4219D19342F7D1002070BC42
:1014800070470C4603461E6825681846AE42214642
:1014900003F1040304F10404E1D1043A032A1846D9
:1014A0002146F0D8002ADAD11046E8E7601B70BC6C
:1014B000704700BF844641EA000313F0030349D19B
:1014C000403A23D30B6803604B6843608B688360AA
:1014D000CB68C3600B6903614B6943618B698361AE
:1014E000CB69C3610B6A03624B6A43628B6A836296
:1014F000CB6AC3620B6B03634B6B43638B6B83637E
:10150000CB6BC36340304031403ADBD230320BD337
:101510000B6803604B6843608B688360CB68C36073
:1015200010301031103AF3D20C3205D351F8043B8D
:1015300040F8043B043AF9D2043208D0D2071CBF69
:1015400011F8013B00F8013B01D30B880380604692
:10155000704700BF082A13D38B07B1D010F00303E4
:10156000AED0C3F10403D21ADB071CBF11F8013B54
:1015700000F8013BA4D331F8023B20F8023B9FE77F
:10158000043AD9D3013A11F8013B00F8013BF9D2F2
:101590000B7803704B7843708B788370604670478C
:1015A00070B4840746D0541E002A41D0CDB2034601
:1015B00002E0621EE4B3144603F8015B9A07F8D117
:1015C000032C2ED9CDB245EA05250F2C45EA054559
:1015D00019D9264603F11002103E0F2E42F8105C76
:1015E00042F80C5C42F8085C42F8045C02F110021C
:1015F000F2D8A4F1100222F00F0204F00F0410320E
:10160000032C13440DD91E462246043A032A46F8F9
:10161000045BFAD8221F22F003020432134404F0C0
:1016200003042CB1C9B21C4403F8011BA342FBD133
:1016300070BC704714460346C2E700BF80EA010C45
:101640001CF0030F37D110F0030C20F0030021F041
:10165000030150F8042B08BF51F8043B0ED08CF066
:10166000030C6FF07F434FEACC0C23FA0CFC51F8CB
:10167000043B42EA0C0243EA0C0300BFA2F1013C26
:101680009A4201BF2CEA020C1CF0803F50F8042B58
:1016900051F8043BF2D04FEA02604FEA12220128CF
:1016A00028BFB0EB036F08BF1B0AF4D003F0FF03A1
:1016B000000EC01A704710F0030F0AD010F8012B6B
:1016C00011F8013B012A28BF9A42F4D0A2EB030093
:1016D00070474DF8045D50F8042B01F0030521F02C
:1016E000030151F8043B022D26D04DD822F07F454E
:1016F000B5EB132FA2F1013C2CEA020C0DD11CF02A
:10170000803C08BF51F8043B0AD185EA0205B5EBDD
:10171000036F0CD150F8042BE8E74FEA13235BE08A
:101720003CF07F4C54D10B784FEA126554E04FEAFD
:10173000126503F0FF034FE04FEA0245A2F1013CBE
:101740004FEA15452CEA020CB5EB134F18D11CF0EB
:10175000803C08BF51F8043B07D185EA0205B5EB90
:10176000034F09D150F8042BE6E75FEA0C4C2FD168
:101770000B884FEA12452FE04FEA03434FEA124528
:101780004FEA134328E000BF02F0FF05B5EB136FEB
:10179000A2F1013C2CEA020C0DD11CF0803C08BFE8
:1017A00051F8043B0AD185EA0205B5EB032F0AD1B3
:1017B00050F8042BE8E74FEA13630DE012F0FF0F37
:1017C00006D051F8043B4FEA122523F07F4303E093
:1017D0004FF0000020BC704705F0FF0203F0FF004F
:1017E000012828BF904204BF2D0A1B0AF4D0A2EBA7
:1017F000000020BC704700BF80EA0102844612F05E
:10180000030F4FD111F0030F32D14DF8044D11F0F9
:10181000040F51F8043B0BD0A3F101329A4312F0AC
:10182000803F04BF4CF8043B51F8043B16D100BF85
:1018300051F8044BA3F101329A4312F0803FA4F116
:1018400001320BD14CF8043BA24312F0803F04BF9D
:1018500051F8043B4CF8044BEAD023460CF8013B0A
:1018600013F0FF0F4FEA3323F8D15DF8044B7047B4
:1018700011F0010F06D011F8012B0CF8012B002AF2
:1018800008BF704711F0020FBFD031F8022B12F0E1
:10189000FF0F16BF2CF8022B8CF8002012F47F4F9C
:1018A000B3D1704711F8012B0CF8012B002AF9D1A4
:1018B000704700BF024B13B1024800F005B87047F3
:1018C00000000000D5180000002301461A46184603
:1018D00000F014B838B5074D074C2C1BA41005D0E8
:1018E000013C55F8043D9847002CF9D1BDE838403B
:1018F00000F0BEB8801A00007C1A00002DE9F04705
:10190000254C064625688846D5F8484192469946B2
:10191000C4B360681F2817DC411C76B104EB800358
:10192000C3F888A0D4F88851012282401543022EC2
:10193000C4F88851C3F808911ED0831C6160002050
:1019400044F82380BDE8F087144B03B34FF4C8700C
:10195000AFF300800446D0B1D5F84831002784E8C1
:1019600088003846C5F848410121C4F88871C4F898
:101970008C71002EE1D0D1E7D4F88C311A43C4F831
:101980008C21DAE705F5A674C5F84841C1E74FF0A8
:10199000FF30BDE8F08700BF581A000000000000CB
:1019A00000000000001000000020000000300000D7
:1019B00000400000005000000060000000700000C7
:1019C000008000000090000000A0000000B00000B7
:1019D00000C0000000D0000000E0000000F00000A7
:1019E00000000100008001000000020000800200F1
:1019F00000000300008003000000040000800400D9
:101A000000000500008005000000060000800600C0
:101A1000000007000080070000C0092020C0092046
:101A200040C0092060C0092080C009205253544D95
:101A30003300444F4E4520006669726D77617265D0
:101A40002E637572006669726D776172652E6269C8
:101A50006E0000004300000098000010F8B500BFC1
:101A6000F8BC08BC9E467047B51800009501000000
:101A7000F8B500BFF8BC08BC9E4670476D01000079
:101A800000000000B01A000000000010C0040000B8
:041A9000C01400007E
:101A940038E6FF7F0100000088F9FF7FB0B0B08016
:081AA400ACF9FF7F0100000016
:101AB000000000001201000200000040091203EEC5
:101AC00000000102000109021B0001010080FA0967
:101AD00004000000FE01020309210BF401000201D1
:101AE000010403090420034500780070006C006FB6
:101AF000007200650045006D0062006500640064CE
:101B000000650064001E034500780070006C006FE3
:101B1000007200650020004D0033002000440046A4
:101B200000550016034500780070006C006F0072CD
:101B300000650020004D003300000000F4010002A9
:101B400000000000000E27070000000084030010C2
:101B5000EC0300105404001000000000000000001E
:101B60000000000000000000000000000000000075
:101B7000000000000000000000000000541A0000F7
:101B80000000000000000000000000000000000055
:101B90000000000000000000000000000000000045
:101BA0000000000000000000000000000000000035
:101BB0000000000000000000000000000000000025
:101BC0000000000000000000000000000000000015
:101BD0000000000000000000000000000000000005
:101BE00000000000000000000000000000000000F5
:101BF00001000000000000000E33CDAB34126DE692
:101C0000ECDE05000B0000000000000000000000FA
:101C100000000000000000000000000000000000C4
:101C200000000000000000000000000000000000B4
:101C300000000000000000000000000000000000A4
:101C40000000000000000000000000000000000094
:04000003000000CD2C
:00000001FF
