:10000000E07F0010CD000000A50A0000A70A000054
:10001000A90A0000AB0A0000AD0A000000000000C1
:10002000000000000000000000000000BB12000003
:10003000BD12000000000000BF120000C11200004D
:10004000C3120000AD090000C3120000C31200007B
:10005000C3120000C3120000C3120000C31200004C
:10006000C3120000C3120000C3120000C31200003C
:10007000C3120000C3120000C3120000C31200002C
:10008000C3120000C3120000C3120000C31200001C
:10009000C3120000C3120000C3120000C31200000C
:1000A000A9120000C3120000C3120000C312000016
:1000B000C3120000C3120000C3120000C3120000EC
:1000C000C3120000C3120000C31200000D490E4A03
:1000D0000E4B9A423EBF51F8040B42F8040BF8E76E
:1000E00000200B490B4A91423CBF41F8040BFAE750
:1000F0000948804709488047094880470948004720
:10010000FEE700004814000000000010B0040010DA
:10011000B004001060090010790C0000C512000046
:10012000A30A0000ED090000044B05481B1A062B2A
:1001300002D9044B03B11847704700BFB304001045
:10014000B00400100000000005490648091A891093
:1001500001EBD171491002D0034B03B1184770472E
:10016000B0040010B00400100000000010B5064CF0
:10017000237843B9FFF7D8FF044B13B10448AFF31A
:1001800000800123237010BDB004001000000000A7
:10019000F813000008B5084B1BB108490848AFF335
:1001A00000800848036813B9BDE80840CCE7064B57
:1001B000002BF9D09847F7E700000000B4040010C6
:1001C000F8130000000000100000000008B503480C
:1001D000034B9847034A044B1A6008BD0400001003
:1001E000710D000000400000DC0400100E4B8289FD
:1001F0000360038A0D4943600D4801EB422202600F
:1002000083B113440B4A0A4493420B4998BF03221B
:100210000A4B8BBF0A220A700A70052284BF08218C
:1002200019701A71704700BFE00400100040000010
:10023000DC04001000C00700D80400107D0000108E
:100240000D4B092230B51A7083890C4C0C4A04EB13
:1002500043231360018A0B4A5D182244954202D859
:100260000360416030BD0023037143718371C3712A
:100270000123037230BD00BFD8040010004000000D
:10028000DC04001000C00700044B00221A70022298
:100290001A71034A034B1A60704700BF7D000010BB
:1002A00000400000DC040010837A03F07F03212B60
:1002B0001CD1C37A013B052B18D8DFE803F00305F6
:1002C00007150C150A4B10E00A4B0EE00A4B0622EC
:1002D0000360002303E0094B012203600023027145
:1002E00043718371C3717047054B1847704700BF56
:1002F000ED010000410200007D000010D804001054
:100300008902000070B5837A044603F07F03212B35
:100310003AD1C37A022B2FD0032B02D0012B33D139
:1003200009E01A4B1A4A1B79082B13702CD1BDE82F
:100330007040184B1847038A144DBBB1164E174B2B
:100340003068A0F58040C00B98474FF40072144904
:100350003068144B984728B9238A326813443360B5
:10036000052307E006232B700A2303E0084B06222F
:100370001A7008232B7170BD044B09221A71064AAA
:10038000038A11680B44136070BD00BF7D0000102C
:10039000D804001051100000DC0400100109000016
:1003A000E0040010F10B0000034B1878A0F10803E3
:1003B00058425841704700BFD804001008B50A4B96
:1003C0001B78063B022B0DD8084B9847BFF34F8F85
:1003D0000749084BCA6802F4E0621343CB60BFF3DD
:1003E0004F8FFEE708BD00BFD80400105110000079
:1003F00000ED00E00400FA0507B500238DF8023097
:100400008DF804308DF80330C0F3421300F01F0064
:100410008DF800308DF80100024B6846984703B014
:100420005DF804FBD5050000004B1847F9030000F8
:1004300000F01F030A4601219940C0F34210014B0E
:10044000184700BF350500000121014B184700BFC8
:10045000310400000021014B184700BF31040000A7
:1004600000F01F0301219940C0F34210004B1847D0
:100470003D05000000F01F0301219940C0F3421028
:10048000004B18474505000070B504460D46054B66
:10049000984720460DB1044B00E0044BBDE8704086
:1004A000184700BF49040000610400007504000003
:1004B00010B5064B0446C0F34210984704F01F04E1
:1004C000E04040F30000C0B210BD00BF4D05000089
:1004D00004280BD8064B53F820303BB112B11A68F0
:1004E000114302E01A6822EA01011960704700BF57
:1004F000DC130000042804D8024B53F8203003B169
:1005000099617047DC130000042804D8024B53F8AB
:10051000203003B1D9617047DC130000042805D8EE
:10052000034B53F8200010B140697047002070471A
:10053000DC130000004B1847D1040000004B1847A3
:10054000F5040000004B184709050000004B184750
:100550001D0500000B4B4FF0FF310122C3F8801046
:10056000C3F88420C3F88011C3F8842100231946FE
:1005700003F16042013302F56142202B82F800133F
:10058000F6D1704700E100E00D4A4FF02063536060
:10059000002318460B499360D1601361536103F146
:1005A0006041013301F56D41202B054A0876F6D1F3
:1005B000002353624FF0FF339362D362136370479B
:1005C00000ED00E00000FA05014B9860704700BFA5
:1005D00000ED00E070B5427803780F2A4FEA43033C
:1005E00088BF01334FEA830388BF103A03F1804389
:1005F00003F5303352000324817804FA02F51C68B5
:1006000001FA02F224EA050422431A6043780278D0
:100610000F2B4FEA420288BF103B144E88BF0132B5
:100620005B000324C17804FA03F556F8224001FA6E
:1006300003F324EA0504234346F8223003790178C2
:10064000012B44780A4A06D152F82100A340034303
:1006500042F8213070BD012000FA04F352F8210065
:1006600020EA030042F8210070BD00BF40C00240F4
:1006700068C00240064B0004302240F4A060C3F87A
:100680000822C3F81002D3F80022D206FBD5704727
:1006900000C00050084B0004202240F40070C3F852
:1006A0000822C3F81002D3F800229206FBD5024BB1
:1006B000D3F81402C0B2704700C000501022064B9D
:1006C000904040F48070C3F80822C3F81002D3F8B9
:1006D0000022D206FBD5704700C0005008B5014685
:1006E00072B6D020034B9847034B41F080009847E7
:1006F00062B608BD75060000BD06000008B50146DB
:1007000072B6D820034B9847034B0846984762B609
:1007100008BD00BF75060000BD06000008B5014613
:1007200072B6F320034B9847034B0846984762B6CE
:1007300008BD00BF75060000BD06000008B50146F3
:1007400072B6FE20034B9847034B0846984762B6A3
:1007500008BD00BF75060000BD06000008B572B6F2
:10076000FE20034B9847034BFE20984762B608BD16
:10077000750600009506000008B572B6430003F048
:100780001E0343EAD0110846034B9847034B084623
:10079000984762B608BD00BF7506000095060000C8
:1007A00072B6430003F01E0343EAD010012303FA9C
:1007B00000F0064BC3F83802D3F800229206FBD5AE
:1007C000024BD3F8140262B6C0B2704700C00050AA
:1007D00008B572B6430003F01E0343EAD01040F0A0
:1007E0004000034B9847034B0846984762B608BD44
:1007F00075060000BD06000008B572B6F220034B76
:100800009847034BF220984762B608BD7506000072
:100810009506000008B572B6FA20024B984762B6FA
:1008200008BD00BF7506000010B5044B9847BDE831
:10083000104040F00100C0B2014B18475D070000B6
:100840003D07000010B5044B9847BDE8104000F08C
:10085000FE00024B184700BF5D0700003D07000087
:100860004FF080431878C0F3800070474FF080420B
:10087000137803F0FB031370704772B64FF0804398
:10088000AA221A7255221A7262B67047BFF34F8FAE
:100890000449054BCA6802F4E0621343CB60BFF31E
:1008A0004F8FFEE700ED00E00400FA0582B0002360
:1008B0000093009B834204D2009B0193009B013371
:1008C000F6E7019802B0704708B50B4940F6B8301A
:1008D00088470A4B4FF480429A604FF47A708847F9
:1008E000BFF35F8FBFF34F8FBFF36F8FD2F800D08E
:1008F000D2F804F008BD00BFAD08000000ED00E034
:1009000070B5C5B20B4C05F001013220A04705F0CF
:1009100002013320A04705F004013420A04705F070
:1009200008013520A04705F010012346BDE87040BE
:100930009C2018478904000008B54B20014B9847BC
:1009400008BD00BFB10400002DE9F0410F4B9847EE
:100950000F4B98470F4B98470F4B98470F4D104E32
:10096000104F0024A84738B9B8470121224608464D
:10097000B04784F00104F5E70122094B1146104607
:100980009847BDE8F041084B184700BFD50A000062
:10099000CD010000F10F0000AD100000A903000020
:1009A000B10A0000BD1100005110000008B54FF061
:1009B00040231A68D2070CD51A6842F001021A6067
:1009C000074B9847074B9847074A536983F00053F2
:1009D00053614FF04022536823F00103536008BD78
:1009E00051100000C908000020C0092037B51E4B77
:1009F00098471E4D4B20A8474B201D4B98471D4C38
:100A00001D4B1F209847002323601C4B984720B1A3
:100A10001B4B984718B11B4B984701232360236851
:100A2000ABB1194B98474920A847184B4920984724
:100A3000174D01214920A847164C42F21070A047DB
:100A400000214920A84742F21070A04709E0124B4C
:100A500098474FF480230193019B13B1019B013B05
:100A6000F9E70E4B984700BF7B08000029040000FF
:100A700055040000CC0400100109000039090000F1
:100A8000610800006D0800004909000049040000E9
:100A900089040000AD080000C90800008D080000AE
:100AA00070477047FEE7FEE7FEE7FEE7FEE700005F
:100AB00070B50E461546064C01462020A04731462B
:100AC0002420A04729462346BDE87040212018472E
:100AD0008904000010B52020094CA0472420A0471D
:100AE0002120A047074C2020A0472420A0472120F8
:100AF000A047BDE81040012211461046024B18479E
:100B00002904000049040000B10A0000004B184706
:100B1000F11FFF1F38B5044672B606483325416001
:100B2000C3600549054B056082600461984762B661
:100B300038BD00BFE0060010F40600100D0B0000E9
:100B4000054B10B434241C6058609960DA60184674
:100B50000249034B10BC1847E0060010F4060010D1
:100B60000D0B0000054B10B432241C6058609960D6
:100B7000DA6018460249034B10BC1847E006001023
:100B8000F40600100D0B000070B5054672B6042483
:100B90000F2C8BBFE3032303A3F5D02303F6FF73CE
:100BA00088BF03F1FF338B4218D90F2C85BF04F5A2
:100BB000FF3303F5F9732303DB038B420A4E08D19D
:100BC0002A4621462046B0472A4621462046074B62
:100BD00098472A4621462046B04702E001341E2CA1
:100BE000D6D162B670BD00BF650B0000410B00009E
:100BF0002DE9F041194D2B6803B928601848194EAA
:100C0000046800232644934203D0CF5CF754013399
:100C1000F9E71C44B4F5007F04601BD1124E29682B
:100C200030684FF47A78114DB0FBF8F0104B9847CC
:100C300028680A4F78B930682346B0FBF8F0094AB3
:100C400039680C4CA047286828B9054B38601860F3
:100C5000BDE8F0810020BDE8F08100BFD0040010A5
:100C6000D40400100807001084000010F4060010DF
:100C7000890B0000150B0000394B2022C3F8A0217E
:100C8000D3F8A021910603D5D3F8A0215206FBD5B5
:100C90000322C3F804210022C3F8A8210120C3F8CD
:100CA000AC211322C3F80C01AA21C3F884205522D9
:100CB000C3F88C10C3F88C20C3F88000C3F88C10E4
:100CC0002749C3F88C20D1F88830254A13F0806F6B
:100CD000F9D00323C2F88030AA23C2F88C30552300
:100CE000C2F88C30D2F888101D4B11F0407FF9D03B
:100CF0002322C3F8A420AA2155220120C3F8AC1056
:100D0000C3F8AC20C3F8A000C3F8AC10C3F8AC2003
:100D1000D3F8A82012F4806F114AF9D00323C2F847
:100D2000A030AA23C2F8AC305523C2F8AC30D2F8B8
:100D3000A8100B4B11F4407FF9D00A4AC3F8C42025
:100D40000022C3F8C82145F23A021A60064B074A4E
:100D50001B6823F0404323F07F039360704700BF7C
:100D600000C00F40088420800000000000ED00E07B
:100D7000014B1860704700BF5C090010054A002352
:100D800053701370044A0221117153719371D3711E
:100D9000704700BF1A09001008090010F0B51B4B7E
:100DA0001B4A9C891268250A0021E4B26E1E107845
:100DB00020B35778AF421FD1042E0BD8DFE806F0DE
:100DC00008030A0606005479214603E0917801E001
:100DD00000210C46A1420ED1022D1A6008BF528894
:100DE0000A490CBF4A6048601A8A5B6893420BDD6F
:100DF000064B5A60F0BD01310244D8E70122187158
:100E000058719871D8711A72F0BD00BF08090010AE
:100E10005C0900100120014B184700BFFD060000CF
:100E2000044B01211970044B002219715A719A71F7
:100E3000DA7170471A090010080900100348837A14
:100E400013F07C0F01D0024B1847704708090010BF
:100E50000503000010B51E4C0822214600201D4B42
:100E60009847082833D1A4F10A00002343721A4B93
:100E700044F80A3C038A4360837A13F07C0F22D142
:100E8000C27A092A1BD8DFE802F005221A221A07C3
:100E900012221618114B0BE08089114BC0B29847F3
:100EA000BDE810400022114680200E4B18470E4B23
:100EB000BDE8104018470D4BFAE70D4BF8E70D4B16
:100EC000BDE8104018470C4BBDE81040184710BD56
:100ED00012090010D91000001A0900107D0D000041
:100EE000DD060000511100009D0D0000210E0000E4
:100EF000150E0000B1110000A902000070B5194CD8
:100F0000637A73BBA37A656813F0800F1DD09DB11F
:100F1000412D34BF2A464022134B21688020984738
:100F2000636822681B1A024463602260CBB94028C0
:100F300017D10123237270BD237A93B12A46294623
:100F40008020094B9847257270BD55B92A4629461D
:100F5000054B8020984701236372BDE87040034B26
:100F6000184770BD08090010511100003D0E000027
:100F700010B51A4C637A43BBA37A626823F07F03EF
:100F800003F0FF008BB9164B52B121689847636894
:100F9000984216DC1B1A636023681844206010BD59
:100FA000114610469847B8B10BE052B911461046A9
:100FB0000B4B984728B901236372BDE81040094BD9
:100FC0001847094BBDE81040184740220749002048
:100FD000034BBDE81040184710BD00BF08090010C2
:100FE000D91000003D0E0000B11100001A090010D8
:100FF00010B5134AD2F8C43043F00043C2F8C430ED
:10100000104BD3F8F42F42F01202C3F8F42FD3F8A8
:10101000F82F122AFBD10C4C636823F070536360E5
:10102000636843F0A0536360084B9847236923F437
:1010300040332361236943F48023236110BD00BF43
:1010400000C00F4000C0005000C002404508000032
:10105000004B18474508000010B572B6124B4FF40C
:101060008072C3F80822420002F01E02D3F8444204
:1010700042EAD010012282401443C3F84442C3F82C
:101080004802C3F84C1262B6D3F800020649C00504
:10109000FAD54FF48073C1F80832D1F834321A43CC
:1010A000C1F8342210BD00BF00C0005010B5074B7E
:1010B0000C22C3F80422064C40218020A047402186
:1010C0000020A047BDE81040024B184700C0005068
:1010D0005910000029080000F8B572B68300194CB9
:1010E00003F03C0343F00103C4F828322346D3F84D
:1010F0002052144C2D05FAD5D4F82052C5F3090519
:1011000095421CDC15B1002633460DE0D4F81832A8
:1011100011E013F0030708BFD4F81862032FCE5470
:101120004FEA162603D001339342F2DB03E0D4F8F2
:101130002872FF07F7D4044B9847044B984762B6D0
:101140002846F8BD00C0005079070000F9070000EC
:1011500070B5144672B68200124B02F03C0242F0A7
:101160000202C3F82822C3F8244264B10025D3F850
:1011700028624A19B60709D5A54207DA126804356C
:10118000C3F81C22F3E72546C3F81C42064B9847D8
:10119000064B9847BFF36F8F62B6A5422846A8BF9B
:1011A000204670BD00C000507907000015080000FF
:1011B00080210020004B1847D1070000F7B5304BC5
:1011C000D3F80022D70744BF0122C3F80822D3F87E
:1011D00000321E0713D52A4B0822C3F80822294BD8
:1011E0009847C5060BD5284B9847284C40218020AE
:1011F000A04700204021A0470220254B9847204BC4
:10120000D3F80022540738D5D3F83042E00710D580
:101210000020204B9847410701D51F4B03E010F0F9
:10122000010002D01D4B984703E0082269461C4B81
:101230009847A20706D5174B80209847C30701D4CB
:10124000184B984734F0030304D10D4B0422C3F824
:10125000082212E00A4E0F4F08250324D6F8303238
:101260002B4204D0601040EAC410C0B2B847013429
:10127000202C4FEA4505F1D1E7E703B0F0BD00BFF0
:1012800000C000505D070000BD03000059100000C1
:101290001D070000A1070000550E0000710F00009F
:1012A000D9100000FD0E0000684620F007018D46B1
:1012B00001B5BDE8014085467047FEE7FEE7FEE761
:1012C000FEE7FEE708B5064B9847064B98470648E9
:1012D000064B984708BDFEE7FEE7FEE7FEE7FEE7A0
:1012E000550500008905000000000000C905000048
:1012F000024B13B1024800F005B87047000000002F
:1013000011130000002301461A46184600F014B8D5
:1013100038B5074D074C2C1BA41005D0013C55F8DF
:10132000043D9847002CF9D1BDE8384000F06EB874
:101330001C140000181400002DE9F047254C064647
:1013400025688846D5F8484192469946C4B36068F6
:101350001F2817DC411C76B104EB8003C3F888A07A
:10136000D4F88851012282401543022EC4F88851D6
:10137000C3F808911ED0831C6160002044F82380CC
:10138000BDE8F087144B03B34FF4C870AFF300808F
:101390000446D0B1D5F84831002784E888003846A3
:1013A000C5F848410121C4F88871C4F88C71002E39
:1013B000E1D0D1E7D4F88C311A43C4F88C21DAE7B4
:1013C00005F5A674C5F84841C1E74FF0FF30BDE808
:1013D000F08700BFF41300000000000000C00920E7
:1013E00020C0092040C0092060C0092080C0092019
:1013F0004300000088000010F8B500BFF8BC08BC2E
:101400009E467047F112000095010000F8B500BF3C
:10141000F8BC08BC9E4670476D010000000000004B
:101420004814000000000010B0040000B0040000E8
:101430009CECFF7F010000008CFEFF7FB0B0B0800D
:08144000B0FEFF7F0100000077
:10144800000000001201000200000040501D15605D
:1014580040000102000109021B0001010080FA0995
:1014680004000000FE01020309210BF4010002013F
:1014780001040309041A0353006D006F006F007420
:10148800006800690065005700610072006500127D
:101498000353006D006F006F0074006800690065F9
:1014A800001A0353006D006F006F00740068006934
:1014B8000065002000440046005500000000F401CB
:1014C80000020000000E270700000000740300104F
:1014D800DC030010440400100000000000000000BD
:1014E80000000000000000000000000000000000F4
:1014F800000000000000000000000000F0130000E1
:1015080000000000000000000000000000000000D3
:1015180000000000000000000000000000000000C3
:1015280000000000000000000000000000000000B3
:1015380000000000000000000000000000000000A3
:101548000000000000000000000000000000000093
:101558000000000000000000000000000000000083
:101568000000000000000000000000000000000073
:1015780001000000000000000E33CDAB34126DE610
:10158800ECDE05000B000000000000000000000079
:101598000000000000000000000000000000000043
:1015A8000000000000000000000000000000000033
:1015B8000000000000000000000000000000000023
:1015C8000000000000000000000000000000000013
:04000003000000CD2C
:00000001FF
