:020000040000FA
:10000000E07F0010CD000000ED0B0000EF0B0000C2
:10001000F10B0000F30B0000F50B00009E43FFEF17
:1000200000000000000000000000000003140000B9
:10003000051400000000000007140000091400006F
:100040000B1400000B1400000B1400000B14000034
:100050000B1400000B1400000B1400000B14000024
:100060000B1400000B1400000B1400000B14000014
:100070000B1400000B1400000B1400000B14000004
:100080000B1400000B1400000B1400000B140000F4
:100090000B1400000B1400000B1400000B140000E4
:1000A000F11300000B1400000B1400000B140000EF
:1000B0000B1400000B1400000B1400000B140000C4
:1000C0000B1400000B1400000B1400000D490E4A25
:1000D0000E4B9A423EBF51F8040B42F8040BF8E76E
:1000E00000200B490B4A91423CBF41F8040BFAE750
:1000F0000948804709488047094880470948004720
:10010000FEE70000981A000000000010C004001074
:10011000C004001080190010C10D00000D14000073
:10012000EB0B0000A90A0000044B05481B1A062B24
:1001300002D9044B03B11847704700BFC304001035
:10014000C00400100000000005490648091A891083
:1001500001EBD171491002D0034B03B1184770472E
:10016000C0040010C00400100000000010B5064CD0
:10017000237843B9FFF7D8FF044B13B10448AFF31A
:1001800000800123237010BDC00400100000000097
:10019000441A000008B5084B1BB108490848AFF3E2
:1001A00000800848036813B9BDE80840CCE7064B57
:1001B000002BF9D09847F7E700000000C4040010B6
:1001C000441A0000000000100000000008B50348B9
:1001D000034B9847034A044B1A6008BD0400001003
:1001E000B90E000000200000F40400100F4B0122A3
:1001F0001A600F4B82890360038A0E4943600E48E0
:1002000001EB4222026083B113440C4A0A44934238
:100210000B4998BF03220B4B8BBF0A220A700A704E
:10022000052284BF082119701A717047DC04001080
:10023000F804001000200000F404001000E00700A3
:10024000F00400108B0000100D4B092230B51A701D
:1002500083890C4C0C4A04EB43231360018A0B4A3C
:100260005D182244954202D80360416030BD0023EE
:10027000037143718371C3710123037230BD00BFE9
:10028000F004001000200000F404001000E007005B
:10029000044B00221A7002221A71034A034B1A609F
:1002A000704700BF8B00001000200000F404001015
:1002B000837A03F07F03212B1CD1C37A013B052BEA
:1002C00018D8DFE803F0030507150C150A4B10E0FA
:1002D0000A4B0EE00A4B06220360002303E0094BA1
:1002E000012203600023027143718371C37170475F
:1002F000054B1847704700BFED01000049020000A0
:100300008B000010F00400109102000070B5837A99
:10031000044603F07F03212B3AD1C37A022B2FD05E
:10032000032B02D0012B33D109E01A4B1A4A1B7957
:10033000082B13702CD1BDE87040184B1847038A66
:10034000144DBBB1164E174B3068A0F58040C00B62
:1003500098474FF4007214493068144B984728B9F5
:10036000238A326813443360052307E006232B7089
:100370000A2303E0084B06221A7008232B7170BD74
:10038000044B09221A71064A038A11680B44136050
:1003900070BD00BF8B000010F00400109911000028
:1003A000F4040010390A0000F8040010390D0000B0
:1003B000034B1878A0F1080358425841704700BF1A
:1003C000F004001008B50A4B1B78063B022B0DD831
:1003D000084B9847BFF34F8F0749084BCA6802F490
:1003E000E0621343CB60BFF34F8FFEE708BD00BF51
:1003F000F00400109911000000ED00E00400FA057F
:1004000007B500238DF802308DF804308DF80330E5
:10041000C0F3421300F01F008DF800308DF801008A
:10042000024B6846984703B05DF804FB550700008F
:10043000004B18470104000000F01F030A46012189
:100440009940C0F34210014B184700BFB5060000A9
:100450000121014B184700BF390400000021014B66
:10046000184700BF3904000000F01F030121994024
:10047000C0F34210004B1847BD06000000F01F03F8
:1004800001219940C0F34210004B1847C5060000F7
:1004900070B504460D46054B984720460DB1044BF8
:1004A00000E0044BBDE87040184700BF5104000055
:1004B000690400007D04000010B5064B0446C0F33B
:1004C0004210984704F01F04E04040F30000C0B21F
:1004D00010BD00BFCD06000000B532238BB00093E5
:1004E0000190029005A96846024B984705980BB009
:1004F0005DF804FBF11FFF1F044B4FF47A721B6879
:10050000B3FBF2F3024A1360704700BF940000107F
:10051000E004001000B535238BB0009301900290E9
:1005200005A96846024B984705980BB05DF804FB97
:10053000F11FFF1F30B504468BB00A4B9847342398
:100540008DE81800084B02941B6805A903936846C0
:10055000064B9847064D2046A8470028FBD1059832
:100560000BB030BDD9040000E0040010F11FFF1FE4
:10057000150500002DE9F04F814692469846254B1F
:10058000D7B053F820700024CB190193444539D2D9
:100590004FF4807616AD204B48469847C4EB0807C9
:1005A000324600211D4B28469847B7423A460AEB8F
:1005B000040128BF32461A4B284698473323194A6C
:1005C0000293019B1268E7180692DFF860B007A952
:1005D00002A8039704950596D84738210C910D95EC
:1005E0000E970F9611A90CA8D847119A62B93246F6
:1005F000294638460C4B984730B9079830B904F56E
:100600008074C3E7079801E04FF0FF3057B0BDE8B2
:10061000F08F00BF88190000D90400008915000080
:100620009D140000E004001039140000F11FFF1FAA
:1006300010B51446044A52F820001A460144034BF0
:1006400020469847002010BD881900009D14000026
:1006500004280BD8064B53F820303BB112B11A686E
:10066000114302E01A6822EA01011960704700BFD5
:10067000001A0000042804D8024B53F8203003B1BC
:1006800099617047001A0000042804D8024B53F8FF
:10069000203003B1D9617047001A0000042805D842
:1006A000034B53F8200010B1406970470020704799
:1006B000001A0000004B184751060000004B184775
:1006C00075060000004B184789060000004B1847CC
:1006D0009D0600000B4B4FF0FF310122C3F8801044
:1006E000C3F88420C3F88011C3F88421002319467D
:1006F00003F16042013302F56142202B82F80013BE
:10070000F6D1704700E100E00D4A4FF020635360DE
:10071000002318460B499360D1601361536103F1C4
:100720006041013301F56D410C2B054A0876F6D185
:10073000002353624FF0FF339362D3621363704719
:1007400000ED00E00000FA05014B9860704700BF23
:1007500000ED00E070B5427803780F2A4FEA4303BA
:1007600088BF01334FEA830388BF103A03F1804307
:1007700003F5303352000324817804FA02F51C6833
:1007800001FA02F224EA050422431A60437802784F
:100790000F2B4FEA420288BF103B144E88BF013234
:1007A0005B000324C17804FA03F556F8224001FAED
:1007B00003F324EA0504234346F822300379017841
:1007C000012B44780A4A06D152F82100A340034382
:1007D00042F8213070BD012000FA04F352F82100E4
:1007E00020EA030042F8210070BD00BF40C0024073
:1007F00068C00240064B0004302240F4A060C3F8F9
:100800000822C3F81002D3F80022D206FBD57047A5
:1008100000C00050084B0004202240F40070C3F8D0
:100820000822C3F81002D3F800229206FBD5024B2F
:10083000D3F81402C0B2704700C000501022064B1B
:10084000904040F48070C3F80822C3F81002D3F837
:100850000022D206FBD5704700C0005008B5014603
:1008600072B6D020034B9847034B41F08000984765
:1008700062B608BDF50700003D08000008B5014656
:1008800072B6D820034B9847034B0846984762B688
:1008900008BD00BFF50700003D08000008B501468F
:1008A00072B6F320034B9847034B0846984762B64D
:1008B00008BD00BFF50700003D08000008B501466F
:1008C00072B6FE20034B9847034B0846984762B622
:1008D00008BD00BFF50700003D08000008B572B66E
:1008E000FE20034B9847034BFE20984762B608BD95
:1008F000F50700001508000008B572B6430003F0C4
:100900001E0343EAD0110846034B9847034B0846A1
:10091000984762B608BD00BFF50700001508000043
:1009200072B6430003F01E0343EAD010012303FA1A
:1009300000F0064BC3F83802D3F800229206FBD52C
:10094000024BD3F8140262B6C0B2704700C0005028
:1009500008B572B6430003F01E0343EAD01040F01E
:100960004000034B9847034B0846984762B608BDC2
:10097000F50700003D08000008B572B6F220034BF1
:100980009847034BF220984762B608BDF507000070
:100990001508000008B572B6FA20024B984762B6F7
:1009A00008BD00BFF507000010B5044B9847BDE82F
:1009B000104040F00100C0B2014B1847DD080000B4
:1009C000BD08000010B5044B9847BDE8104000F08A
:1009D000FE00024B184700BFDD080000BD08000004
:1009E0004FF080431878C0F3800070474FF080428A
:1009F000137803F0FB03137070470000BFF34F8FB1
:100A00000449054BCA6802F4E0621343CB60BFF3AC
:100A10004F8FFEE700ED00E00400FA0582B00023EE
:100A20000093009B834204D2009B0193009B0133FF
:100A3000F6E7019802B070477047000008B54B20F8
:100A4000014B984708BD00BFB90400002DE9F041F3
:100A50000E4B98470E4B98470E4B98470E4B9847B6
:100A60000E4D0F4E0F4F0024A84738B9B84701214B
:100A700022460846B04784F00104F5E701221146FA
:100A8000BDE8F0411046064B184700BF1D0C0000A2
:100A9000CD01000039110000F5110000B103000084
:100AA000F90B00000513000073B5374B9847374B1F
:100AB0009847374D4B20A8474B20364B9847364C2C
:100AC00041F20803354A00211D20A047344933482C
:100AD000344B98472E46044678B93349334B2F4858
:100AE0009847334B1D209847214641F208032B4A73
:100AF0001D20304CA047012500E000252E4C00238E
:100B000023602E4B984728B125B92D4B984718B133
:100B10002C4B98470123236023682B4CABB12B4B04
:100B200098472B4B98474920B0472A4B4920984774
:100B3000294D01214920A84742F21070A047002109
:100B40004920A8472548A0471BE040F6B830A047F9
:100B5000234B4FF400529A604FF47A70A047BFF3D2
:100B60005F8FBFF34F8FBFF36F8FD2F800D0D2F8F3
:100B700004F04FF480230193019B13B1019B013BCF
:100B8000F9E7184B984700BFC10D0000F9040000B9
:100B9000310400005D04000031060000F80600107A
:100BA000141A0000251600001B1A0000E1170000AF
:100BB0003505000075050000E40400103D0A000042
:100BC000E1090000ED0900001D0A00004D0A0000C7
:100BD000991100005104000091040000A08601005A
:100BE00000ED00E0FD09000070477047FEE7FEE7FA
:100BF000FEE7FEE7FEE7000070B50E461546064C20
:100C000001462020A04731462420A04729462346FC
:100C1000BDE87040212018479104000010B5202045
:100C2000094CA0472420A0472120A047074C2020A2
:100C3000A0472420A0472120A047BDE81040012262
:100C400011461046024B18473104000051040000C1
:100C5000F90B0000004B1847F11FFF1F38B5044681
:100C600072B6064833254160C3600549054B0560EF
:100C700082600461984762B638BD00BF001700105B
:100C800014170010550C0000054B10B434241C60E0
:100C900058609960DA6018460249034B10BC184747
:100CA0000017001014170010550C0000054B10B46D
:100CB00032241C6058609960DA6018460249034B80
:100CC00010BC18470017001014170010550C000036
:100CD00070B5054672B602240F2C8BBFE3032303C5
:100CE000A3F5D02303F6FF7388BF03F1FF338B42D4
:100CF00018D90F2C85BF04F5FF3303F5F9732303CF
:100D0000DB038B420A4E08D12A4621462046B047D3
:100D10002A4621462046074B98472A462146204628
:100D2000B04702E001341E2CD6D162B670BD00BFC0
:100D3000AD0C0000890C00002DE9F041194D2B6825
:100D400003B928601848194E0468002326449342CA
:100D500003D0CF5CF7540133F9E71C44B4F5007FAE
:100D600004601BD1124E296830684FF47A78114D17
:100D7000B0FBF8F0104B984728680A4F78B93068F4
:100D80002346B0FBF8F0094A39680C4CA0472868A4
:100D900028B9054B38601860BDE8F0810020BDE837
:100DA000F08100BFE8040010EC04001028170010C8
:100DB0009400001014170010D10C00005D0C00000E
:100DC000394B2022C3F8A021D3F8A021910603D5E6
:100DD000D3F8A0215206FBD50322C3F80421002238
:100DE000C3F8A8210120C3F8AC211322C3F80C01D9
:100DF000AA21C3F884205522C3F88C10C3F88C2094
:100E0000C3F88000C3F88C102749C3F88C20D1F8B0
:100E10008830254A13F0806FF9D00323C2F8803060
:100E2000AA23C2F88C305523C2F88C30D2F888102F
:100E30001D4B11F0407FF9D02322C3F8A420AA2132
:100E400055220120C3F8AC10C3F8AC20C3F8A000B1
:100E5000C3F8AC10C3F8AC20D3F8A82012F4806F0C
:100E6000114AF9D00323C2F8A030AA23C2F8AC304B
:100E70005523C2F8AC30D2F8A8100B4B11F4407FC8
:100E8000F9D00A4AC3F8C4200022C3F8C82145F2A9
:100E90003A021A60064B074A1B6823F0404323F0CE
:100EA0007F039360704700BF00C00F40088420801C
:100EB0000000000000ED00E0014B1860704700BF2B
:100EC0007C190010054A002353701370044A022154
:100ED000117153719371D371704700BF3A190010AB
:100EE00028190010F0B51B4B1B4A9C891268250A73
:100EF0000021E4B26E1E107820B35778AF421FD1A4
:100F0000042E0BD8DFE806F008030A060600547921
:100F1000214603E0917801E000210C46A1420ED168
:100F2000022D1A6008BF52880A490CBF4A60486007
:100F30001A8A5B6893420BDD064B5A60F0BD0131A3
:100F40000244D8E70122187158719871D8711A7249
:100F5000F0BD00BF281900107C1900100120014BC2
:100F6000184700BF7D080000044B01211970044B95
:100F7000002219715A719A71DA7170473A1900108A
:100F8000281900100348837A13F07C0F01D0024B1C
:100F900018477047281900100D03000010B51E4CAB
:100FA0000822214600201D4B9847082833D1A4F180
:100FB0000A00002343721A4B44F80A3C038A436038
:100FC000837A13F07C0F22D1C27A092A1BD8DFE87A
:100FD00002F005221A221A0712221618114B0BE0F2
:100FE0008089114BC0B29847BDE8104000221146DD
:100FF00080200E4B18470E4BBDE8104018470D4B94
:10100000FAE70D4BF8E70D4BBDE8104018470C4BC5
:10101000BDE81040184710BD321900102112000021
:101020003A190010C50E00005D080000991200007A
:10103000E50E0000690F00005D0F0000F9120000CE
:10104000B102000070B5194C637A73BBA37A65686E
:1010500013F0800F1DD09DB1412D34BF2A46402290
:10106000134B216880209847636822681B1A02444A
:1010700063602260CBB9402817D10123237270BD71
:10108000237A93B12A4629468020094B9847257236
:1010900070BD55B92A462946054B80209847012343
:1010A0006372BDE87040034B184770BD28190010EB
:1010B00099120000850F000010B51A4C637A43BBEB
:1010C000A37A626823F07F0303F0FF008BB9164B0D
:1010D00052B1216898476368984216DC1B1A636016
:1010E00023681844206010BD114610469847B8B1D7
:1010F0000BE052B9114610460B4B984728B9012313
:101100006372BDE81040094B1847094BBDE8104019
:101110001847402207490020034BBDE810401847FC
:1011200010BD00BF2819001021120000850F00001B
:10113000F91200003A19001010B5134AD2F8C43061
:1011400043F00043C2F8C430104BD3F8F42F42F000
:101150001202C3F8F42FD3F8F82F122AFBD10C4C4B
:10116000636823F070536360636843F0A053636067
:10117000084B9847236923F440332361236943F4E0
:101180008023236110BD00BF00C00F4000C000508D
:1011900000C00240C5090000004B1847C509000007
:1011A00010B572B6124B4FF48072C3F80822420099
:1011B00002F01E02D3F8444242EAD01001228240DB
:1011C0001443C3F84442C3F84802C3F84C1262B651
:1011D000D3F800020649C005FAD54FF48073C1F870
:1011E0000832D1F834321A43C1F8342210BD00BF9E
:1011F00000C0005010B5074B0C22C3F80422064C67
:1012000040218020A04740210020A047BDE8104099
:10121000024B184700C00050A1110000A9090000AE
:10122000F8B572B68300194C03F03C0343F0010398
:10123000C4F828322346D3F82052144C2D05FAD591
:10124000D4F82052C5F3090595421CDC15B10026DF
:1012500033460DE0D4F8183211E013F0030708BF4D
:10126000D4F81862032FCE544FEA162603D0013368
:101270009342F2DB03E0D4F82872FF07F7D4044B63
:101280009847044B984762B62846F8BD00C0005006
:10129000F90800007909000070B5144672B68200A2
:1012A000124B02F03C0242F00202C3F82822C3F8BB
:1012B000244264B10025D3F828624A19B60709D53B
:1012C000A54207DA12680435C3F81C22F3E7254665
:1012D000C3F81C42064B9847064B9847BFF36F8FE5
:1012E00062B6A5422846A8BF204670BD00C0005087
:1012F000F90800009509000080210020004B1847E4
:1013000051090000F7B5304BD3F80022D70744BF8E
:101310000122C3F80822D3F800321E0713D52A4B46
:101320000822C3F80822294B9847C5060BD5284B3D
:101330009847284C40218020A04700204021A0470A
:101340000220254B9847204BD3F80022540738D56C
:10135000D3F83042E00710D50020204B98474107D2
:1013600001D51F4B03E010F0010002D01D4B984740
:1013700003E0082269461C4B9847A20706D5174B85
:1013800080209847C30701D4184B984734F00303D3
:1013900004D10D4B0422C3F8082212E00A4E0F4F6D
:1013A00008250324D6F830322B4204D0601040EADE
:1013B000C410C0B2B8470134202C4FEA4505F1D122
:1013C000E7E703B0F0BD00BF00C00050DD0800003B
:1013D000C5030000A11100009D08000021090000C4
:1013E0009D0F0000B9100000211200004510000000
:1013F000684620F007018D4601B5BDE801408546ED
:101400007047FEE7FEE7FEE7FEE7FEE708B5064B9E
:101410009847064B98470648064B984708BDFEE795
:10142000FEE7FEE7FEE7FEE7D5060000090700003D
:101430000000000049070000032A70B426D940EAE2
:1014400001039B0711D004780D78AC4222D10244ED
:10145000431C05E013F8014B11F8015FAC4219D1B0
:101460009342F7D1002070BC70470C4603461E68BB
:1014700025681846AE42214603F1040304F1040432
:10148000E1D1043A032A18462146F0D8002ADAD1DD
:101490001046E8E7601B70BC704700BF844641EA15
:1014A000000313F0030349D1403A23D30B680360D0
:1014B0004B6843608B688360CB68C3600B690361D2
:1014C0004B6943618B698361CB69C3610B6A0362BA
:1014D0004B6A43628B6A8362CB6AC3620B6B0363A2
:1014E0004B6B43638B6B8363CB6BC3634030403187
:1014F000403ADBD230320BD30B6803604B68436059
:101500008B688360CB68C36010301031103AF3D21F
:101510000C3205D351F8043B40F8043B043AF9D2AD
:10152000043208D0D2071CBF11F8013B00F8013B80
:1015300001D30B8803806046704700BF082A13D38D
:101540008B07B1D010F00303AED0C3F10403D21A5D
:10155000DB071CBF11F8013B00F8013BA4D331F8B5
:10156000023B20F8023B9FE7043AD9D3013A11F835
:10157000013B00F8013BF9D20B7803704B784370C4
:101580008B7883706046704770B4840746D0541ED1
:10159000002A41D0CDB2034602E0621EE4B31446F5
:1015A00003F8015B9A07F8D1032C2ED9CDB245EA96
:1015B00005250F2C45EA054519D9264603F11002E9
:1015C000103E0F2E42F8105C42F80C5C42F8085CAA
:1015D00042F8045C02F11002F2D8A4F1100222F0E9
:1015E0000F0204F00F041032032C13440DD91E46D1
:1015F0002246043A032A46F8045BFAD8221F22F056
:1016000003020432134404F003042CB1C9B21C4495
:1016100003F8011BA342FBD170BC7047144603467C
:10162000C2E700BF80EA010C1CF0030F37D110F0B5
:10163000030C20F0030021F0030150F8042B08BF35
:1016400051F8043B0ED08CF0030C6FF07F434FEA4F
:10165000CC0C23FA0CFC51F8043B42EA0C0243EA9E
:101660000C0300BFA2F1013C9A4201BF2CEA020C1C
:101670001CF0803F50F8042B51F8043BF2D04FEAA5
:1016800002604FEA1222012828BFB0EB036F08BFA7
:101690001B0AF4D003F0FF03000EC01A704710F0CD
:1016A000030F0AD010F8012B11F8013B012A28BFC3
:1016B0009A42F4D0A2EB030070474DF8045D50F855
:1016C000042B01F0030521F0030151F8043B022D26
:1016D00026D04DD822F07F45B5EB132FA2F1013C67
:1016E0002CEA020C0DD11CF0803C08BF51F8043BE1
:1016F0000AD185EA0205B5EB036F0CD150F8042B33
:10170000E8E74FEA13235BE03CF07F4C54D10B78C1
:101710004FEA126554E04FEA126503F0FF034FE011
:101720004FEA0245A2F1013C4FEA15452CEA020CB2
:10173000B5EB134F18D11CF0803C08BF51F8043BA7
:1017400007D185EA0205B5EB034F09D150F8042B08
:10175000E6E75FEA0C4C2FD10B884FEA12452FE0E9
:101760004FEA03434FEA12454FEA134328E000BF14
:1017700002F0FF05B5EB136FA2F1013C2CEA020C5D
:101780000DD11CF0803C08BF51F8043B0AD185EA1A
:101790000205B5EB032F0AD150F8042BE8E74FEA16
:1017A00013630DE012F0FF0F06D051F8043B4FEA2F
:1017B000122523F07F4303E04FF0000020BC704768
:1017C00005F0FF0203F0FF00012828BF904204BF8C
:1017D0002D0A1B0AF4D0A2EB000020BC704700BF0A
:1017E00080EA0102844612F0030F4FD111F0030F7B
:1017F00032D14DF8044D11F0040F51F8043B0BD0D9
:10180000A3F101329A4312F0803F04BF4CF8043B2D
:1018100051F8043B16D100BF51F8044BA3F101323B
:101820009A4312F0803FA4F101320BD14CF8043BF3
:10183000A24312F0803F04BF51F8043B4CF8044B24
:10184000EAD023460CF8013B13F0FF0F4FEA332395
:10185000F8D15DF8044B704711F0010F06D011F874
:10186000012B0CF8012B002A08BF704711F0020F62
:10187000BFD031F8022B12F0FF0F16BF2CF8022B4D
:101880008CF8002012F47F4FB3D1704711F8012B70
:101890000CF8012B002AF9D1704700BF024B13B19D
:1018A000024800F005B8704700000000BD180000B5
:1018B000002301461A46184600F014B838B5074D03
:1018C000074C2C1BA41005D0013C55F8043D98474B
:1018D000002CF9D1BDE8384000F0BEB8681A00000D
:1018E000641A00002DE9F047254C06462568884615
:1018F000D5F8484192469946C4B360681F2817DC62
:10190000411C76B104EB8003C3F888A0D4F8885159
:10191000012282401543022EC4F88851C3F8089171
:101920001ED0831C6160002044F82380BDE8F0874E
:10193000144B03B34FF4C870AFF300800446D0B12A
:10194000D5F84831002784E888003846C5F8484172
:101950000121C4F88871C4F88C71002EE1D0D1E760
:10196000D4F88C311A43C4F88C21DAE705F5A67453
:10197000C5F84841C1E74FF0FF30BDE8F08700BF30
:10198000401A0000000000000000000000100000ED
:101990000020000000300000004000000050000067
:1019A0000060000000700000008000000090000057
:1019B00000A0000000B0000000C0000000D0000047
:1019C00000E0000000F000000000010000800100C5
:1019D00000000200008002000000030000800300FD
:1019E00000000400008004000000050000800500E5
:1019F00000000600008006000000070000800700CD
:101A000000C0092020C0092040C0092060C0092072
:101A100080C009207224545E5E3300444F4E45203E
:101A2000006669726D776172652E63757200666912
:101A3000726D776172652E62696E0000430000006E
:101A400098000010F8B500BFF8BC08BC9E4670476F
:101A50009D18000095010000F8B500BFF8BC08BC57
:101A60009E4670476D01000000000000981A0000BB
:101A700000000010C0040000C014000050E6FF7F0A
:101A80000100000088F9FF7FB0B0B080ACF9FF7FA3
:101A900001000000FFFFFFFF000000001201000234
:101AA00000000040091203EE0000010200010902DB
:101AB0001B0001010080FA0904000000FE0102037E
:101AC00009210BF40100020101040309042003456C
:101AD00000780070006C006F007200650045006DBA
:101AE000006200650064006400650064001E034538
:101AF00000780070006C006F007200650020004DDF
:101B000000330020004400460055001603450078CD
:101B10000070006C006F007200650020004D003303
:101B200000000000F401000200000000000E270782
:101B30000000000084030010EC03001054040010A7
:101B40000000000000000000000000000000000095
:101B50000000000000000000000000000000000085
:101B6000000000003C1A000000000000000000001F
:101B70000000000000000000000000000000000065
:101B80000000000000000000000000000000000055
:101B90000000000000000000000000000000000045
:101BA0000000000000000000000000000000000035
:101BB0000000000000000000000000000000000025
:101BC0000000000000000000000000000000000015
:101BD0000000000000000000010000000000000004
:101BE0000E33CDAB34126DE6ECDE05000B000000C9
:101BF00000000000000000000000000000000000E5
:101C000000000000000000000000000000000000D4
:101C100000000000000000000000000000000000C4
:101C200000000000000000000000000000000000B4
:101F50000000000000000000FFFFFFFFFFFFFFFF89
:101F6000FFFFFFFFFFFFFFFFFFFFFFFFFFFFFFFF81
:101F7000FFFFFFFFFFFFFFFFFFFFFFFFFFFFFFFF71
:101F8000FFFFFFFFFFFFFFFFFFFFFFFFFFFFFFFF61
:101F9000FFFFFFFFFFFFFFFFFFFFFFFFFFFFFFFF51
:101FA000FFFFFFFFFFFFFFFFFFFFFFFFFFFFFFFF41
:101FB000FFFFFFFFFFFFFFFFFFFFFFFFFFFFFFFF31
:101FC000FFFFFFFFFFFFFFFFFFFFFFFFFFFFFFFF21
:101FD000FFFFFFFFFFFFFFFFFFFFFFFFFFFFFFFF11
:101FE000FFFFFFFFFFFFFFFFFFFFFFFFFFFFFFFF01
:101FF000FFFFFFFFFFFFFFFFFFFFFFFFFFFFFFFFF1
:102000004C150010F52B000000000000000000003F
:10201000F32B0000F32B0000F32B00000000000066
:10202000000000000000000000000000F32B000092
:10203000F32B000000000000F32B000091290000AA
:10204000F32B0000F32B0000F32B0000F32B000018
:10205000F32B00006D3500007D3500008D3500004C
:102060009D350000F32B0000F32B0000F32B000044
:10207000F32B0000F32B0000F32B0000F32B0000E8
:10208000F32B0000F32B0000F32B0000F32B0000D8
:10209000F32B0000F32B0000F32B0000F32B0000C8
:1020A000D9400000F32B0000F32B0000F32B0000BD
:1020B000F32B0000F32B0000F32B0000F32B0000A8
:1020C000F32B000010B5054C237833B9044B13B142
:1020D0000448AFF300800123237010BD4C1500109D
:1020E000000000006049000008B5064B1BB106481F
:1020F0000649AFF300800648036813B1054B03B1EE
:10210000984708BD0000000060490000501500100D
:102110004C0D001000000000204B10B5D3F88820B3
:10212000D3F80C11C2F30162032A01F003011C4A27
:1021300021D10129D3F88840D3F8880007D002299B
:10214000C4F30E04D3F8041107D0164B07E0D3F8FC
:102150000411C4F30E04144B01E04FF47A4304FB62
:102160000333C0F307400130C9B2B3FBF0F30131D0
:10217000B3FBF1F310E0D3F804310129DBB203F132
:10218000010303D0022903D0084903E0084901E014
:102190004FF4FA41B1FBF3F3136010BD00C00F40E0
:1021A0000000001000127A0000366E0100093D00A8
:1021B000001BB700324B2022C3F8A0211946D1F8EA
:1021C000A0212F4B5006FAD50322C3F804212D4A33
:1021D0000120C3F80C01AA21C3F884205522C3F8BA
:1021E0008C10C3F88C20C3F88000C3F88C10C3F89F
:1021F0008C20234AD2F888305901FAD50323C2F83B
:102200008030AA23C2F88C305523C2F88C30D2F823
:1022100088101B4B11F0407FF9D02322C3F8A42073
:10222000AA2155220120C3F8AC10C3F8AC20C3F892
:10223000A000C3F8AC10C3F8AC20114AD2F8A83003
:102240005B05FAD50323C2F8A030AA23C2F8AC304C
:102250005523C2F8AC30D2F8A810094B11F4407FD6
:10226000F9D009490022C3F8A821C3F8AC21C3F86A
:10227000C410C3F8C82143F23A021A60704700BF85
:1022800000C00F4063000500DE87280407B54FF447
:1022900016511C4800F044FF4FF4FA6000F068FF4C
:1022A000194800F009FB184800F01CFB58B9174901
:1022B000144800F029FD68461549164A00F068FAEE
:1022C000684600F015FB14490E4800F013FD134951
:1022D0000C4800F00FFD12490A4800F00BFD1149AF
:1022E000084800F007FD1049064800F003FD0F49BB
:1022F000044800F0FFFC2920002100F065FB03B03A
:102300005DF804FBE015001068150010E4450000BE
:10231000F8450000044600000D4600002546000078
:102320003D460000574600006E460000854600000E
:1023300038B50024184B1A681D46944209DA204625
:10234000012100F041FB2046012100F04DFB01344A
:10235000F0E700242A6894421CDA0021204600F0AD
:1023600043FB642000F004FF2046012100F03CFB09
:10237000642000F0FDFE292000F03EFB40B9074B31
:1023800001221A60292000F037FB0028FAD038BD5E
:102390000134DFE738BD00BF5C0000106C15001091
:1023A000F8B5154F154E3846154D4FF4165100F03F
:1023B00067FC144C30464FF4165100F061FC28467F
:1023C0004FF4165100F05CFC20464FF4165100F01B
:1023D00057FC38460C4900F097FC30460B4900F09A
:1023E00093FC28460A4900F08FFC20460949BDE8C5
:1023F000F84000F089BC00BF80150010981500104F
:10240000B0150010C8150010A5460000B646000023
:10241000C6460000D646000038B5134C1349204686
:1024200000F056FC0A220021204600F0B3FC2420D4
:1024300000F0BCFA0E490546204600F049FC29464A
:102440000A22204600F0A6FC232000F0AFFA09493A
:102450000546204600F03CFC204629460A22BDE8FD
:10246000384000F099BC00BFE0150010E8460000BD
:10247000F74600000047000030B589B004A8624C60
:1024800000F04EFA9DF810100A22204601F5FA617C
:1024900000F080FC20462F2100F01EFC9DF811105A
:1024A0000A22204600F08EFC20462F2100F014FC6A
:1024B0000A229DF81210204600F084FC5349204661
:1024C00000F006FC04A800F0AFF951490C2505FB0B
:1024D0000011204600F0FCFB20464E4900F0F8FBBE
:1024E0009DF813100A22204600F06CFC20463A2189
:1024F00000F0F2FB9DF814100A22204600F062FC66
:1025000020463A2100F0E8FB0A229DF815102046EB
:1025100000F058FC204600F0E5FB3F49204600F063
:10252000D7FB04A800F090F90A220146204600F0EB
:102530003DFC3A49204600F0CBFB04A800F084F9AA
:1025400037490A22B0FBF1F1204600F02FFC20466B
:10255000344900F0D9FB062300932A461E230DEBD5
:102560000500072100F096F90DEB050206A804A965
:1025700000F082F920462C4900F0AAFB9DF81810C3
:102580000A22204601F5FA6100F004FC20462F21C2
:1025900000F0A2FB9DF819100A22204600F012FC60
:1025A00020462F2100F098FB9DF81A100A222046A1
:1025B00000F008FC2046202100F08EFB9DF81B1047
:1025C0000A22204600F0FEFB20463A2100F084FB60
:1025D0009DF81C100A22204600F0F4FB20463A2108
:1025E00000F07AFB9DF81D100A22204600F0EAFB5D
:1025F000204600F077FB204600F074FB4FF47A7021
:1026000000F0B6FD09B030BDE0150010094700002C
:10261000080000100C4700000F4700002B47000087
:1026200080510100304700003247000008B52920E2
:10263000002100F0C9F9292000F0DEF9164B80B91D
:102640001A68012A05D1154A1168013101F0030108
:10265000116000221A60292000F0CEF90028FAD07B
:1026600001E001221A600D4B1B68032B13D8DFE831
:1026700003F002060A0EBDE80840FFF759BEBDE8A8
:102680000840FFF78DBEBDE80840FFF7C5BEBDE8B6
:102690000840FFF7F1BE08BD040000106C150010E3
:1026A00010B5B0F5FA6F24BFA0F5FA6080B2002330
:1026B0000133DCB28C4206D20C4C1C4414F8014CA1
:1026C000224492B2F4E7022903D9830704BF0132FE
:1026D00092B200EBC00300EBC30303EB8303013BA7
:1026E000033003EBA000104480B210BD444700004B
:1026F00003784078303BDBB20A2B28BF002303EB82
:102700008303303800EB4300C0B270471E4B3C22BD
:102710000B4410B5B3FBF2F4B4FBF2F102FB14333B
:1027200002FB1142027118224371B1FBF2F302FB6A
:1027300013119BB2C17000220270027812F0030FD5
:1027400014BF0024012404F5B671994206DAC4F5D9
:102750007E44933423449BB20132EDE70122427060
:1027600041780A4A0A4412F8012C1CB1022904BF1C
:102770000132D2B2934204D39B1A01319BB2417011
:10278000EEE70133837010BD80BC92C74447000060
:1027900070B5044601F109000D461646FFF7A8FF83
:1027A00020702B78413B122B2CD8DFE803F0172B3D
:1027B0002B292B152B2B2B0A2B2B1D27252B2B2BBA
:1027C00023006B78612B05D0AB786E2B14BF0723E9
:1027D000062316E0012314E0022312E0AB78722BEB
:1027E00014BF082304230CE0AB78722B14BF05231D
:1027F000032306E0092304E00A2302E00B2300E0A0
:102800000C236370281DFFF773FFA0703046FFF79D
:102810006FFFE070F01CFFF76BFF2071B01DFFF73A
:1028200067FF6071204670BD08B5034659789A78F5
:102830000078FFF735FF0723063090FBF3F3C3EB77
:10284000C303C01AC0B208BD10B504466178A278AF
:102850000078FFF725FFE378182202FB003021798A
:102860003C2303FB00126179024803FB0213184466
:1028700010BD00BF80436D3838B504460846154684
:10288000FFF7E2FF296801442046FFF73FFF20469B
:1028900038BD000010B54FF461646243054C04FB81
:1028A00001213C2202FB03139DF908105C1804600F
:1028B00010BD00BF80510100084B0120D3F8C42097
:1028C00042F40072C3F8C420A3F5582312221A72EE
:1028D00000221A641872024B1A70704700C00F4031
:1028E00070150010014B1878704700BF701500106C
:1028F00042790A4B83F82020027983F82420C27899
:1029000083F82820827883F82C20427883F83820B6
:10291000027802F5FA629A87704700BF00400240D1
:1029200070B5104B93F8202093F8241093F82840AA
:1029300093F82C5093F838609B8FD2B29BB2B3F5CA
:10294000FA6F28BFA3F5FA63C9B2E4B2EDB2F6B2EA
:1029500028BF9BB2037046708570C47001714271CC
:1029600070BD00BF00400240014A024B1A60704730
:102970009F86010014E000E0014B07221A607047B7
:1029800010E000E0014B1868704700BF741500109C
:1029900008B5044B1A6801321A60034B1B6803B177
:1029A000984708BD741500107815001008B5A0F1FF
:1029B0002103042B04D8034B185C00F04FF808BD2A
:1029C000002008BD9147000038B5064B0D461C5C41
:1029D0000021204600F0B9F82046E9B2BDE83840B1
:1029E00000F0D1B891470000024BC9B2185C00F06A
:1029F000DEB800BF9147000008B5024B185C00F03C
:102A0000EAF808BD91470000104BD3F8C42042F407
:102A10008052C3F8C420D3F8A8210D4BC2F3811211
:102A2000022A1B6805D0032A05D0012A04D09B087E
:102A300002E05B0800E0DB08064AB3FBF2F3013B6F
:102A40001B02054A43F400131360704700C00F4097
:102A500000000010404B4C0000400340254B10B5D7
:102A60001A6804461AB901221A60FFF7CDFF3F2CFD
:102A700004D0173CE4B2062C38D800E005241E4BE5
:102A800003EB440213F81400517800F05EF80121C2
:102A900001FA04F4194B0A201A6822F0FF021443C9
:102AA0001C6000F02DF8002003460146134A14680C
:102AB00044F0807414605468002CFCDA0F4A01F171
:102AC00009045268C2F30B12944202DA0020034652
:102AD0000AE002F109048C42F8DB01339BB2104496
:102AE000032B80B203D80A461146DFE70020800896
:102AF00010BD00BF7C15001050470000004003408F
:102B000082B00023009301930093009B83420AD27A
:102B100000230193019B062B02D8019B0133F8E7A8
:102B2000009B0133F0E702B0704713B50023044661
:102B30000193019BA34206D24FF47A70FFF7E0FFA6
:102B4000019B0133F4E702B010BD430900F01F0000
:102B50000F2810B54FEA430302D910380133C0B231
:102B60004000C0B20324844001F0030101FA00F0E8
:102B70009B0003F1804303F530331A6822EA040214
:102B80001043186010BD00F01F03012202FA03F386
:102B900000F0E00000F1005000F51C2011F0010FE2
:102BA000016814BF0B4321EA03030360704700F080
:102BB0001F03012202FA03F300F0E00000F10050CD
:102BC00000F51C2011F0010F416914BF0B4321EAED
:102BD00003034361704700F0E00303F1005303F582
:102BE0001C235B6900F01F0023FA00F000F00100D5
:102BF0007047FEE7684620F007018D4601B50023C7
:102C00000B4A0C499818884204D20B4959589950DC
:102C10000433F5E7094B0A4A934203D2002243F8F2
:102C2000042BF8E700F0D0F8BDE801408546704776
:102C3000000000104C0D0010644900004C150010FD
:102C40001E270010704708B5006900F0EEF901205A
:102C500008BD08B5006900F0CEF908BD006900F0B4
:102C6000C3B9006900F0D6B9002242604FF47A720D
:102C70008260024A01610260704700BF684700003D
:102C800000698368994202D8416000F057B97047E3
:102C9000F8B505460E4617460024BC4207D02B68FF
:102CA00028461B68315D984708B10134F5E7204696
:102CB000F8BD38B505460C46084641B101F0DAFBCF
:102CC0002B6802465B6828462146984738BD38BDC8
:102CD00008B5FFF7EEFF08BD08B503681B68984705
:102CE00008BD000008B50249FFF7E3FF08BD00BFBB
:102CF0008047000038B50446FFF7DBFF0546204655
:102D0000FFF7F0FF284438BD38B50446FFF7D1FF80
:102D100005462046FFF7E6FF284438BD30B50023BE
:102D20008BB08DF82430012A98BF0A220DF12304BC
:102D3000B1FBF2F303FB1211CDB2092D94BF303574
:102D40003735EDB2214604F801590BB11946EFE7CA
:102D5000FFF7AFFF0BB030BDF8B506460D46144681
:102D600022B90368C9B21B689847F8BD0A2A0CD17A
:102D700000290BDA2D21FFF7AFFF694207462246F3
:102D80003046FFF7CBFF3844F8BDD2B2BDE8F8407B
:102D9000FFF7C4BFFFF7E0BF38B50446FFF7DCFF1D
:102DA00005462046FFF79EFF284438BD10B522B9DE
:102DB0000268C9B21268904710BDD2B2BDE8104097
:102DC000FFF7ACBFFFF7F2BF70B5FFF7F3F9164D91
:102DD000FFF7A2F900F0B0FB144B0024ED1AAD1080
:102DE0001E46AC4204D056F8242090470134F8E740
:102DF0000F4B104D0024ED1AAD101E46AC4204D00E
:102E000056F8242090470134F8E7FFF7ADFDFFF7AF
:102E1000B3FD09484FF4165100F082F9FFF736FA76
:102E2000FFF704FCFCE700BF380D0010380D001060
:102E3000380D0010480D0010E01500100D4B99687A
:102E40001A7D01F00F010429D2B211D1D2070FD59A
:102E50001878094BC0B21B6893F8142293F8151226
:102E60000132D2B28A4203D01944087583F8142281
:102E7000704700BF00C00040600000100D4B996813
:102E80001A7D01F00F010429D2B211D1D2070FD55A
:102E90001878094BC0B21B6893F8142293F81512E6
:102EA0000132D2B28A4203D01944087583F8142241
:102EB000704700BF00000140640000100D4B99688E
:102EC0001A7D01F00F010429D2B211D1D2070FD51A
:102ED0001878094BC0B21B6893F8142293F81512A6
:102EE0000132D2B28A4203D01944087583F8142201
:102EF000704700BF00800940680000100D4B9968C2
:102F00001A7D01F00F010429D2B211D1D2070FD5D9
:102F10001878094BC0B21B6893F8142293F8151265
:102F20000132D2B28A4203D01944087583F81422C0
:102F3000704700BF00C009406C00001038B503683E
:102F4000044699781878FFF700FE23680125587821
:102F50009978FFF7FAFD2268204BD178D3F8C400A6
:102F600005FA01F152680143C3F8C4100721117238
:102F70002268832152681173D3F8A821184BC2F339
:102F80008112022A1B6805D0032A05D0AA4204D068
:102F90009B0802E05B0800E0DB0862681201B3FBFB
:102FA000F2F32268D9B25268C3F307231170226882
:102FB0000C495268137123685B681A7B02F07F0228
:102FC0001A7323685A6801235360227B50B202F0BF
:102FD0001F029340400941F8203038BD00C00F4027
:102FE0000000001000E100E090F8142290F8153283
:102FF000D01AC0B2704790F8152290F81412034608
:10300000914205D081180132087D83F8152270475E
:10301000FF20704790F8153290F814229A421ABF98
:10302000C018007D4FF0FF30704703685B681A7D61
:103030009206FCD51970704708B50B4B0B48196800
:10304000FFF712FE0A4B0B481968FFF70DFE0A4BFB
:103050000A481968FFF708FE094B0A481968BDE8D5
:103060000840FFF701BE00BF60000010801500108F
:10307000640000109815001068000010B0150010D2
:103080006C000010C815001000207047704713B581
:10309000012304460193236820469B689847002833
:1030A000F9D00DF1030001A900F06EF89DF80300BE
:1030B00002B010BD07B501A800F08EF8019803B06A
:1030C0005DF804FB37B502AC04F8011DFFF75AFCAC
:1030D0002146851C0122822000F0DAFF064B1A6887
:1030E0001C461AB9FFF74EFCA842F7D9002301206D
:1030F000236003B030BD00BF00160010002310B5E0
:1031000043604FF47A738360044B0446036000F01D
:10311000C9FE012000F084FE204610BDC847000013
:1031200010B50E4C2368BBB9FFF72CFC00F57A7084
:1031300020600B4B1B7823B9FFF724FC23689842CF
:10314000F7D3FFF71FFC2368984205D2BDE8104073
:103150004FF4FA6000F00CB810BD00BFF815001075
:10316000082700100148FFF7C9BF00BFE015001095
:1031700038B505460024AC4205D04FF47A70FFF70D
:10318000BFFC0134F7E738BD0346086830B51C18AA
:10319000A34209D0054A516C4D1C01F03F01556412
:1031A000525C03F8012BF3E730BD00BF9C16001002
:1031B0000346086830B51C18A34209D0054A116CB3
:1031C0004D1C156413F8015B01F03F015554F3E702
:1031D00030BD00BF9C160010044B1A6C5B6CD31AF8
:1031E00003F03F0303600020704700BF9C160010EF
:1031F000012070470120704701207047012070476F
:10320000012070470A4B0B4A99785878090441EA23
:10321000002118780143D87841EA006111601979DA
:103220000120117159799B7951719371704700BFD9
:10323000F0260010E8080010084A094B1168080A37
:1032400019705870080C090ED9701179987019719D
:103250005179927959719A7101207047E8080010EC
:10326000F02600100120704701207047014B012219
:103270001A60704700160010F7B53349022000F0BD
:10328000DBFE324B32491D780B78019000228242DE
:1032900053DA304C2C4EE75C965DB7424AD101338D
:1032A000DBB2AB4247D30B7049200021FFF74DFC46
:1032B00049200121FFF767FC01214920FFF777FC36
:1032C0000120FFF732FC00214920FFF770FC0120AC
:1032D000FFF72BFC002000F0A3FD0A20FFF725FCE0
:1032E0001D4B4FF08072C3F8802000F06FF81B4A2E
:1032F00041F2080300211D2000F0F8F81D2000F025
:1033000083F82146154801F057F80021134A41F28D
:1033100008031D2000F094F84FF47A70FFF705FCC5
:103320000F4A104BD16801F4E0610B43D360BFF347
:103330004F8FFEE700230132A9E70B70024801A975
:10334000FFF736FF03B0F0BD10160010E0080010C4
:1033500004160010E108001000E100E0E41600107F
:1033600000ED00E00400FA05024B00221A8090B242
:10337000704700BFFC1500100A49A1230B702023E1
:103380004B7000238B70CB700B714B71CB71064B64
:1033900002221B888A710B7281201B0A0A224B723F
:1033A00000F076BE50160010FC15001000B5322358
:1033B0008BB000930190029005A96846024B984794
:1033C00005980BB05DF804FBF11FFF1F044B1A6852
:1033D0004FF47A73B2FBF3F2024B1A60704700BFEE
:1033E000000000100816001000B535238BB00093C4
:1033F0000190029005A96846024B984705980BB0CA
:103400005DF804FBF11FFF1F10B58AB00446FFF7FB
:10341000CDFF34238DE81800074B02941B686846E3
:10342000039305A9054B98472046FFF7DDFF0028C9
:10343000FAD105980AB010BD08160010F11FFF1F41
:103440002DE9F04F9846264BD7B053F820308146EF
:10345000934601EB030A0024444539D216AD4FF4DC
:1034600080764846FFF7A2FFC4EB080700213246EA
:10347000284600F057FF3A46B24228BF32460BEBCF
:103480000401284600F0D8FE33230293154B04EBC9
:103490000A071B6802A80693134B07A90193039719
:1034A0000495059698473822019B0C920D950E972E
:1034B0000F960CA811A99847119B5BB9384629466D
:1034C000324600F085FE28B9079828B93444C3E78E
:1034D000079801E04FF0FF3057B0BDE8F08F00BF14
:1034E000E047000008160010F11FFF1F10B5054C43
:1034F00054F82040104621441A4600F09DFE00205A
:1035000010BD00BFE047000070B50A4C03460D46F1
:1035100094F8260019461646FFF749FB94F8280050
:103520002946FFF744FB94F827003146BDE8704078
:10353000FFF73DBB9147000010B50B4C012194F8FB
:103540002600FFF720FB94F828000121FFF71BFB62
:1035500094F827000121FFF716FBBDE81040012079
:1035600001460246FFF7D0BF9147000008B5024B65
:103570001B681B69984708BD6000001008B5024B26
:103580001B681B69984708BD6400001008B5024B12
:103590001B681B69984708BD6800001008B5024BFE
:1035A0001B681B69984708BD6C000010074A002380
:1035B0001380074A4FF001111370064A1370064A30
:1035C0001160064A1360064A136070471C270010FA
:1035D000FC26001008270010F82600100427001011
:1035E000002700100020014900F026BD0927001027
:1035F00010B5084C8020A2882168082A28BF08221C
:1036000000F046FD236803442360A388181AA080B5
:1036100010BD00BF1427001010B5064C0020216813
:1036200000F00AFD236803442360A388181AA080D1
:1036300010BD00BF14270010002180200A4600F0B2
:1036400027BD00000020014900F0F6BCF026001064
:10365000224A137803F01F03012B08D0022B18D045
:10366000002B39D11E4A1F4B1A60012070471E499A
:10367000097801F0FF0000292FD01C491279097840
:1036800000208A4229D21A4A1649107050700A60E6
:10369000EBE7127911064BBF4FF48031012102F0A4
:1036A0000F0302F08F0301FA03F30F49097801F0C9
:1036B000FF0009B9120710D10E4A106818400CD04B
:1036C0000D4A116812681342094B0CBF00220122F7
:1036D0001A80044A1360C8E70020704709270010C9
:1036E0001C270010142700100827001011270010B5
:1036F000F0260010F82600100427001070B52A4AA2
:1037000001461378154613F01F0302D0022B18D080
:1037100045E05488012C45D1244D40B1204600F0AD
:10372000ABFB2B889BB243F002032B8007E000F039
:10373000A3FB2A8822F002021204120C2A802346DC
:1037400030E01279130602F08F0005D502F00F0366
:103750004FF480349C4001E001248440144B1E78D7
:1037600006F0FF03F6B112F00F031BD0114B1B68DC
:10377000234017D06B8893B929B100F03FFC0E4B62
:103780001A68144309E00D4B1B681C4209D100F074
:1037900045FC094B1A6822EA04041C6001E000237E
:1037A00000E00123184670BD092700101C270010F7
:1037B00008270010F826001004270010002700102A
:1037C000064B1A78D20606D19A78054B42F0800251
:1037D0001A70012070470020704700BF09270010B1
:1037E000FC2600101B4B187810F01F002ED1DA7841
:1037F000022A0BD0032A06D0012A2AD1164A174BD7
:1038000012201A601CE09978154B13E09A78154B3A
:10381000904205D0197809B159880B440130F7E777
:103820001878B0B10D4A1360588809E01A7802B1CF
:10383000134401308842F9D1187850B1074A136017
:10384000064B9A88824203D9988001E00020704795
:1038500001207047092700100649000014270010B6
:103860009C48000058480000054B1B78DB0604D13B
:10387000044A054B01201A6070470020704700BFC2
:103880000927001008270010142700102DE9F8431D
:10389000564E377817F01F0740F0A480B378002BFE
:1038A00074D0534C2378002B00F094806378042B61
:1038B0004BD0052B4BD0022B65D16279B378934264
:1038C00041D14C4A0125137022794B4B1A704B4B56
:1038D00000221A705A709A70DA700122AA40DFF83A
:1038E0002C81D8F80030C1461A4202D0284600F098
:1038F00067FB4FF48032AA40D8F800301A4203D058
:1039000045F0800000F05CFB0135102DE5D14FF053
:1039100001133B4AC9F8003000231360394A0120E3
:10392000136000F001FBE379374A13F0400F13886E
:1039300003D09BB243F0010303E023F001031B0417
:103940001B0C13801FE063881EE0E7781BE0D7B9EB
:10395000A3781A0603F08F0506D503F00F034FF482
:10396000803202FA03F301E00123AB40274A2046EC
:1039700011680B43136000F0F5FA284600F011FBC4
:10398000284600F02DFB23781C448BE7194A0124BC
:1039900013700122A2401D4D2B682F461A4202D0FF
:1039A000204600F00DFB4FF48032A2402B681A42F3
:1039B00003D044F0800000F003FB0134102CE8D168
:1039C0004FF001133B600E4B002018600D4B186048
:1039D00000F0AAFA074BB0781B78C31A5842584136
:1039E000BDE8F8830020BDE8F88300BF0927001078
:1039F000584800000827001011270010EC2600107E
:103A000004270010002700101C270010F8260010C3
:103A10000A4B187800F01F0001280CD1084A1278D0
:103A20004AB1084A1B791278934204D2064A1344D9
:103A3000064A136070470020704700BF0927001036
:103A40000827001011270010EC2600101427001082
:103A50002DE9F74F444A137803F01F03012B7ED161
:103A600042490B7803F0FF00002B79D00026404C30
:103A70003746B2463546B1462378002B6DD0637881
:103A8000042B0AD0052B1BD0022B63D137490B78AE
:103A9000617999425ED063885DE094F80290137971
:103AA000E578994553D1304B9B789D424FD1314BAE
:103AB000012613F809A003F809505FFA8AFA46E0D4
:103AC0001379994546D194F8028018F0800F08F0D8
:103AD0008F0B06D008F00F084FF4803101FA08F878
:103AE00003E04FF0010808FA0BF891788D4216D1E7
:103AF000214947EA0807086848EA000008601F49AA
:103B0000086820EA080008602046019200F02AFABE
:103B1000584600F046FA584600F062FA15E055455E
:103B200018D118EA070F14D113496FEA080808687A
:103B3000AA4608EA000008601049086808EA000080
:103B400008605846019200F03BFA019A02E0002713
:103B500000E0AA4623781C448EE7304600E00020AF
:103B600003B0BDE8F08F00BF092700100827001040
:103B700058480000EC260010F8260010042700101A
:103B8000013870B5062800F2E480DFE810F0070085
:103B90009500CA00E200E200DB00DD006D4CFFF79B
:103BA00021FD20786C4DC00900F0FAF9A379E27983
:103BB00043EA0223AB802378C3F3411111B10129F9
:103BC0003BD08BE063780B2B00F28880DFE803F0BA
:103BD000060B86148616191C22252F32FFF738FD96
:103BE00000287BD04FE00020FFF788FD002875D02B
:103BF000BDE87040FFF720BD0120F5E7FFF7E0FDCD
:103C0000F4E7FFF7EFFDEBE7002000F0F7F9002302
:103C1000AB8070BDFFF728FEE2E7FFF737FE002814
:103C20005CD0FFF709FDBDE8704000F0CBBAFFF7AC
:103C3000EFFED5E7FFF70CFFD8E703F01F03012BDA
:103C40004CD12379012B49D86378042B26D007D88F
:103C5000012B13D026D3022B24D0032B17D03DE009
:103C6000212B22D002D8202B1CD037E0222B1FD0B2
:103C7000232B33D16088FFF7F7FAB7E7FFF7BAFADB
:103C800060B3364B2B60BDE87040FFF7B1BC608875
:103C9000FFF7B4FA10B3314B2B60F4E76088FFF7FD
:103CA000AFFAA3E72D4B2B6070BDFFF7C5FAE7E72E
:103CB0006088FFF7D7FA99E7264C2378DB092CD1E7
:103CC000254DAB88002B44D0FFF7A6FCAB88002B1A
:103CD0003FD12378C3F34112012A06D0802000F09F
:103CE0008DF91D4B00229A8070BD03F01F03012B3C
:103CF000F4D12379012BF1D86378022B06D0202B45
:103D000008D0002BEAD1FFF773FA6FE76088FFF75E
:103D100073FA6BE7FFF776FA68E7BDE87040FFF7E4
:103D200091BC0C4B1B78DB09ADD10D4B1A781206F8
:103D30000FD51A7802F07F021A701878BDE870402B
:103D400000F09CB8002000E08020BDE8704000F04A
:103D500065B970BD0927001014270010F026001067
:103D6000FC260010034600F00F0040001B0648BF71
:103D700001307047054B1022C3F80822C3F8100227
:103D8000D3F80022D206FBD5704700BF00C0005018
:103D90000A4B1022C3F80822C3F81002D3F800021D
:103DA000064AC006FAD51023C2F80832C2F810122B
:103DB000024BD3F80032DB06FAD5704700C0005042
:103DC00038B50E4C1023C4F808320D46FFF7CAFF71
:103DD000000440F4A060C4F81002D4F80022074B9D
:103DE000D206FAD51022C3F80822C3F81052034BAA
:103DF000D3F80032DB06FAD538BD00BF00C0005052
:103E0000064B3022C3F80822C3F81002D3F8002270
:103E10009206FBD5014BD3F81402704700C0005046
:103E20000349002808BF4FF480710248FFF7B0BF74
:103E3000000101000005FE000E4B0022C3F84822DD
:103E400001210822C3F84C22C3F84812C3F84C22BF
:103E5000D3F80012074AC905FAD54FF0FF33C2F86C
:103E60003832C2F83432C2F808320C23C2F80432B5
:103E7000704700BF00C000507047000038B5000414
:103E8000074D40F4000444F4807428462146FFF7AF
:103E90007FFF28462146BDE83840FFF779BF00BFC5
:103EA0000005D00008B51D4B5A6822F070525A60C8
:103EB0005A6842F0A0525A60DA6822F0405222F06A
:103EC0003002DA60DA6842F0005242F01002DA6042
:103ED0001A6922F440221A611A6942F480221A6196
:103EE00003F55023D3F8C42042F00042C3F8C420A5
:103EF0000B4B1A22C3F8F42FD3F8F82F02F01A0252
:103F00001A2AF9D1074B4FF080721A60FFF794FF1D
:103F1000BDE808400020FFF7B1BF00BF00C002406D
:103F200000C0005000E100E00B49002808B50B4834
:103F300008BF4FF48071FFF72BFF094B0322C3F832
:103F40004422D3F80022D205FBD5054B4FF48072F2
:103F5000C3F8082208BD00BF000101000005D80019
:103F600000C0005010B504468078FFF7FBFE012228
:103F700082400A4BD3F844120A43C3F84422C3F8E0
:103F80004802A288C3F84C22D3F80022D205FBD500
:103F9000024B4FF48072C3F8082210BD00C00050DD
:103FA000704708B5FFF7DEFEBDE80840000440F4A6
:103FB000800040F4A0604FF48071FFF7E9BE00007C
:103FC00008B5FFF7CFFEBDE80840000440F48000CC
:103FD00040F4A0600149FFF7DBBE00BF00012000F4
:103FE00008B5FFF7BFFEBDE80840000440F48000BC
:103FF00040F4A0604FF48071FFF7CABE08B5FFF728
:10400000B1FEBDE80840000440F4800040F4A06028
:104010000149FFF7BDBE00BF0001010008B5FFF771
:10402000A1FEBDE80840000440F4800040F4A06018
:104030004FF48071FFF7ACBE00F00F0238B592006C
:10404000114B42F00102C3F82822D3F82042220586
:10405000FBD5C4F30904E51CAD080023AB420A4AB2
:1040600005D0D2F8182241F823200133F6E70023C7
:10407000C2F8283241F248230341DB0702D4034946
:10408000FFF79EFE204638BD00C000500005F2003C
:10409000F8B500F00F0314469B000D4A43F00203ED
:1040A000E61CC2F82832B608C2F824420023B34204
:1040B00006D051F82350064F0133C7F81C52F6E7DB
:1040C0000023C2F828320349FFF77AFE2046F8BDE4
:1040D00000C000500005FA00274B70B5D3F800224D
:1040E00012F0080510D00822C3F808222348FFF771
:1040F00041FE2348FFF784FEC5063BD5FFF79CFE33
:10410000BDE8704000F05CB8540733D5D3F8306296
:104110002C46AE4204D1184B0422C3F8082270BDCD
:104120000123A340334221D0134A1D436108C2F842
:104130003832D2F800329806FBD50F4B14F0010F3D
:10414000D3F814220F4B0CD134B9520704D51A6896
:1041500012B10120904709E053F8213033B1022019
:1041600003E053F821300BB1032098470134202C91
:10417000CFD1D0E770BD00BF00C000500005FE00E9
:104180000002FE0018490000022802D0032802D0D5
:104190007047FFF771B8FFF769B80000032808B54A
:1041A0000AD1FFF7E1F8054B1A88824204D0188043
:1041B000BDE80840FFF7E0B808BD00BF0C160010CE
:1041C000FFF7F4B9014B1B78704700BF08270010B8
:1041D000032A70B428D940EA01039B0713D005785D
:1041E0000C78A54224D1013A002305E010F8015FC4
:1041F00011F8014FA5421BD1934203F10103F5D100
:10420000002070BC70470C46034625681E68214696
:10421000AE42184604F1040403F1040304D1043A45
:10422000032A18462146F0D8002AD8D11046E8E7DC
:10423000281B70BC704700BF844641EA000313F09E
:10424000030349D1403A23D30B6803604B684360B2
:104250008B688360CB68C3600B6903614B69436102
:104260008B698361CB69C3610B6A03624B6A4362EA
:104270008B6A8362CB6AC3620B6B03634B6B4363D2
:104280008B6B8363CB6BC36340304031403ADBD2EE
:1042900030320BD30B6803604B6843608B688360DC
:1042A000CB68C36010301031103AF3D20C3205D312
:1042B00051F8043B40F8043B043AF9D2043208D0E8
:1042C000D2071CBF11F8013B00F8013B01D30B885A
:1042D00003806046704700BF082A13D38B07B1D014
:1042E00010F00303AED0C3F10403D21ADB071CBFE6
:1042F00011F8013B00F8013BA4D331F8023B20F850
:10430000023B9FE7043AD9D3013A11F8013B00F888
:10431000013BF9D20B7803704B7843708B78837034
:1043200060467047F0B4840743D0541E002A3ED044
:10433000CDB2034603E0621E002C38D0144603F8C9
:10434000015B9A07F7D1032C2AD9CDB245EA05259E
:104350000F2C45EA054515D9A4F110073F0903F1D3
:10436000100606EB07161A46156055609560D56075
:104370001032B242F8D104F00F040137032C03EBE2
:1043800007130DD91E462246043A032A46F8045B59
:10439000FAD8221F22F003020432134404F003046B
:1043A0002CB1C9B21C4403F8011BA342FBD1F0BCE1
:1043B000704714460346C6E780EA0102844612F0BD
:1043C000030F4FD111F0030F32D14DF8044D11F00E
:1043D000040F51F8043B0BD0A3F101329A4312F0C1
:1043E000803F04BF4CF8043B51F8043B16D100BF9A
:1043F00051F8044BA3F101329A4312F0803FA4F12B
:1044000001320BD14CF8043BA24312F0803F04BFB1
:1044100051F8043B4CF8044BEAD023460CF8013B1E
:1044200013F0FF0F4FEA3323F8D15DF8044B7047C8
:1044300011F0010F06D011F8012B0CF8012B002A06
:1044400008BF704711F0020FBFD031F8022B12F0F5
:10445000FF0F16BF2CF8022B8CF8002012F47F4FB0
:10446000B3D1704711F8012B0CF8012B002AF9D1B8
:10447000704700BF20F0030110F00300C0F10000FE
:1044800051F8043B00F1040C4FEACC0C6FF0000231
:104490001CBF22FA0CF213434FF0010C4CEA0C2C17
:1044A0004CEA0C4CA3EB0C0222EA030212EACC12F7
:1044B00004BF51F8043B0430F4D013F0FF0F1FBFCA
:1044C000013013F47F4F013013F47F0F18BF013018
:1044D000704700BF024B13B1024800F005B87047A7
:1044E00000000000F544000001460020024603469B
:1044F00000F018B838B5094D094C641BA41018BF5A
:1045000005EB840505D0013C55F8043D9847002C87
:10451000F9D1BDE8384000F05FB800BF480D001089
:104520004C0D0010F0B5274C85B026680746D6F82C
:104530004841002C40D065681F2D1EDD224818B967
:104540004FF0FF3005B0F0BD4FF4C87003910292F8
:104550000193AFF3008003990446029A019B00285F
:10456000EED0D6F848510020256060600546C6F8B8
:104570004841C4F88801C4F88C013FB96B1C002085
:104580000235636044F8251005B0F0BD0126AE4049
:1045900004EB8500C0F88820D4F88821022F42EA75
:1045A0000602C4F88821C0F80831E7D1D4F88C316C
:1045B0001E43C4F88C61E1E706F5A674C6F84841CD
:1045C000B9E700BF5C49000000000000F8B500BF7B
:1045D000F8BC08BC9E467047F8B500BFF8BC08BCE4
:1045E0009E467047525443206973204E4F542072A8
:1045F000756E6E696E6721004E6F76203231203203
:104600003031370031343A33363A3233005465733F
:1046100074696E67204578706C6F726520417264B2
:1046200075696E6F0050726573732D2D3E31206673
:104630006F72204750494F20546573740050726563
:1046400073732D2D3E3220666F722053657269613F
:104650006C20546573740050726573732D2D3E3356
:1046600020666F7220414443205465737400507279
:104670006573732D2D3E3420666F72205254432093
:104680005465737400507265737320746865207389
:10469000776974636820666F72206E657874207421
:1046A000657374730053657269616C20706F727406
:1046B000205A65726F0053657269616C20706F7269
:1046C00074204F6E650053657269616C20706F7263
:1046D000742054776F0053657269616C20706F723B
:1046E000742054687265650054656D702053656E62
:1046F000736F72203D20002020504F54203D200039
:1047000020204C4452203D20002028002920002059
:1047100073696E6365206D69646E696768742031C2
:104720002F312F31393730203D200073203D2000BC
:104730006400206E6F77202B203764202B203330CD
:10474000733A20001F1C1F1E1F1E1F1F1E1F1E1F2F
:104750001701180119011A013E033F030302020267
:104760000000000000000000472C0000912C000019
:104770005D2C0000532C0000632C0000452C000031
:104780000D0A006E616E00696E66006F7666002E1F
:1047900000030201000B0A100F1112090807060599
:1047A000043D161514134847464544434241404CC6
:1047B0004D293F1A1918172021244B000000000032
:1047C0000000000000000000C5300000912C000037
:1047D000B53000008F300000893000008D300000BF
:1047E0000000000000100000002000000030000069
:1047F0000040000000500000006000000070000059
:10480000008000000090000000A0000000B0000048
:1048100000C0000000D0000000E0000000F0000038
:104820000000010000800100000002000080020082
:10483000000003000080030000000400008004006A
:104840000000050000800500000006000080060052
:1048500000000700008007000902430002010080F9
:104860003209040000010202005E05240010010567
:104870002401010104240202052406000107058128
:104880000310000209040100020A00005E0705028D
:1048900002400000070582024000000004030904F2
:1048A00022034500580050004C004F0052004500C4
:1048B000200045004D0042004500440044004500F2
:1048C000440020034500580050004C004F005200A7
:1048D000450020004D0033002000560043004F00EB
:1048E0004D001A03440045004D004F0030003000D9
:1048F0003000300030003000300030000A03560035
:1049000043004F004D00120100020200000809128E
:1049100002EE000101020301813B00009D41000005
:1049200089410000000000000000000000000000BD
:104930000000000000000000000000000000000077
:104940000000000000000000000000000000000067
:1049500000000000000000004300000010090010EB
:104960000000000000E1F5050100000053756E64D1
:1049700061790000000000004D6F6E6461790000F5
:104980000000000054756573646179000000000048
:104990005765646E657364617900000054687572D0
:1049A00073646179000000004672696461790000F7
:1049B00000000000536174757264617900000000AA
:1049C00029000000700000108C020010A8040010E4
:1049D000C4060010F00800100000000020AA4400E7
:1049E000050000003D2E0000000000000000000057
:1049F00000000000000000000000000000000000B7
:104A000000000000000000000000000000000000A6
:104A10000000000000000000000000000000000096
:104A20000000000000000000000000000000000086
:104A30000000000000000000000000000000000076
:104A40000000000000000000000000000000000066
:104A50000000000000000000000000000000000056
:104A60000000000000000000000000000000000046
:104A70000000000000000000000000000000000036
:104A80000000000000000000000000000000000026
:104A90000000000000000000000000000000000016
:104AA0000000000000000000000000000000000006
:104AB00000000000000000000000000000000000F6
:104AC00000000000000000000000000000000000E6
:104AD00000000000000000000000000000000000D6
:104AE00000000000000000000000000000000000C6
:104AF00000000000000000000000000000000000B6
:104B000000000000000000000000000000000000A5
:104B10000000000000000000000000000000000095
:104B20000000000000000000000000000000000085
:104B30000000000000000000000000000000000075
:104B40000000000000000000000000000000000065
:104B50000000000000000000000000000000000055
:104B60000000000000000000000000000000000045
:104B70000000000000000000000000000000000035
:104B80000000000000000000000000000000000025
:104B90000000000000000000000000000000000015
:104BA0000000000000000000000000000000000005
:104BB00000000000000000000000000000000000F5
:104BC00000000000000000000000000000000000E5
:104BD00000000000000000000000000000000000D5
:104BE00000000000000000000000000000000000C5
:104BF000F80800100000000021AA44000600000090
:104C00007D2E0000000000000000000000000000F9
:104C10000000000000000000000000000000000094
:104C20000000000000000000000000000000000084
:104C30000000000000000000000000000000000074
:104C40000000000000000000000000000000000064
:104C50000000000000000000000000000000000054
:104C60000000000000000000000000000000000044
:104C70000000000000000000000000000000000034
:104C80000000000000000000000000000000000024
:104C90000000000000000000000000000000000014
:104CA0000000000000000000000000000000000004
:104CB00000000000000000000000000000000000F4
:104CC00000000000000000000000000000000000E4
:104CD00000000000000000000000000000000000D4
:104CE00000000000000000000000000000000000C4
:104CF00000000000000000000000000000000000B4
:104D000000000000000000000000000000000000A3
:104D10000000000000000000000000000000000093
:104D20000000000000000000000000000000000083
:104D30000000000000000000000000000000000073
:104D40000000000000000000000000000000000063
:104D50000000000000000000000000000000000053
:104D60000000000000000000000000000000000043
:104D70000000000000000000000000000000000033
:104D80000000000000000000000000000000000023
:104D90000000000000000000000000000000000013
:104DA0000000000000000000000000000000000003
:104DB00000000000000000000000000000000000F3
:104DC00000000000000000000000000000000000E3
:104DD00000000000000000000000000000000000D3
:104DE00000000000000000000000000000000000C3
:104DF00000000000000000000000000000000000B3
:104E00000000000000000000000000000009001089
:104E1000000000001155220007000000BD2E000018
:104E20000000000000000000000000000000000082
:104E30000000000000000000000000000000000072
:104E40000000000000000000000000000000000062
:104E50000000000000000000000000000000000052
:104E60000000000000000000000000000000000042
:104E70000000000000000000000000000000000032
:104E80000000000000000000000000000000000022
:104E90000000000000000000000000000000000012
:104EA0000000000000000000000000000000000002
:104EB00000000000000000000000000000000000F2
:104EC00000000000000000000000000000000000E2
:104ED00000000000000000000000000000000000D2
:104EE00000000000000000000000000000000000C2
:104EF00000000000000000000000000000000000B2
:104F000000000000000000000000000000000000A1
:104F10000000000000000000000000000000000091
:104F20000000000000000000000000000000000081
:104F30000000000000000000000000000000000071
:104F40000000000000000000000000000000000061
:104F50000000000000000000000000000000000051
:104F60000000000000000000000000000000000041
:104F70000000000000000000000000000000000031
:104F80000000000000000000000000000000000021
:104F90000000000000000000000000000000000011
:104FA0000000000000000000000000000000000001
:104FB00000000000000000000000000000000000F1
:104FC00000000000000000000000000000000000E1
:104FD00000000000000000000000000000000000D1
:104FE00000000000000000000000000000000000C1
:104FF00000000000000000000000000000000000B1
:1050000000000000000000000000000000000000A0
:105010000000000000000000000000000000000090
:10502000000000000000000008090010000000005F
:105030001255220008000000FD2E000000000000B4
:105040000000000000000000000000000000000060
:105050000000000000000000000000000000000050
:105060000000000000000000000000000000000040
:105070000000000000000000000000000000000030
:105080000000000000000000000000000000000020
:105090000000000000000000000000000000000010
:1050A0000000000000000000000000000000000000
:1050B00000000000000000000000000000000000F0
:1050C00000000000000000000000000000000000E0
:1050D00000000000000000000000000000000000D0
:1050E00000000000000000000000000000000000C0
:1050F00000000000000000000000000000000000B0
:10510000000000000000000000000000000000009F
:10511000000000000000000000000000000000008F
:10512000000000000000000000000000000000007F
:10513000000000000000000000000000000000006F
:10514000000000000000000000000000000000005F
:10515000000000000000000000000000000000004F
:10516000000000000000000000000000000000003F
:10517000000000000000000000000000000000002F
:10518000000000000000000000000000000000001F
:10519000000000000000000000000000000000000F
:1051A00000000000000000000000000000000000FF
:1051B00000000000000000000000000000000000EF
:1051C00000000000000000000000000000000000DF
:1051D00000000000000000000000000000000000CF
:1051E00000000000000000000000000000000000BF
:1051F00000000000000000000000000000000000AF
:10520000000000000000000000000000000000009E
:10521000000000000000000000000000000000008E
:10522000000000000000000000000000000000007E
:10523000000000000000000000000000000000006E
:1052400000000000067224545E5E330080250000DA
:10525000000008000203010300C000400F10010419
:10526000000001400A0B01180080094000010219EA
:1052700000C0094000000000FC0B0010640C00108E
:10528000CC0C001000000000000000000000000036
:10529000000000000000000000000000000000000E
:1052A000000000000000000058490000000000005D
:1052B00000000000000000000000000000000000EE
:1052C00000000000000000000000000000000000DE
:1052D00000000000000000000000000000000000CE
:1052E00000000000000000000000000000000000BE
:1052F00000000000000000000000000000000000AE
:10530000000000000000000000000000000000009D
:10531000000000000000000000000000010000008C
:10532000000000000E33CDAB34126DE6ECDE05005C
:105330000B00000000000000000000000000000062
:10534000000000000000000000000000000000005D
:10535000000000000000000000000000000000004D
:10536000000000000000000000000000000000003D
:10537000000000000000000000000000000000002D
:10569000000000000000000000000000D5440000F1
:1056A000E92000003930000065310000C52000000D
:1056B00000000000000000000000000000000000EA
:1056C00000000000000000000000000000000000DA
:1056D00000000000000000000000000000000000CA
:1056E00000000000000000000000000000000000BA
:020000040007F3
:10800000444F4E45200000FFFFFFFFFFFFFFFFFF33
:10801000FFFFFFFFFFFFFFFFFFFFFFFFFFFFFFFF70
:10802000FFFFFFFFFFFFFFFFFFFFFFFFFFFFFFFF60
:10803000FFFFFFFFFFFFFFFFFFFFFFFFFFFFFFFF50
:10804000FFFFFFFFFFFFFFFFFFFFFFFFFFFFFFFF40
:10900000FFFFFFFFFFFFFFFF000000000000000068
:109010000000000000000000000000000000000050
:109020000000000000000000000000000000000040
:109030000000000000000000000000000000000030
:109040000000000000000000000000000000000020
:00000001FF
